{
  "contractName": "Advertisements",
  "abi": [
    {
      "inputs": [],
      "stateMutability": "nonpayable",
      "type": "constructor"
    },
    {
      "inputs": [
        {
          "internalType": "string",
          "name": "ipfsHash",
          "type": "string"
        },
        {
          "internalType": "string",
          "name": "tag",
          "type": "string"
        },
        {
          "internalType": "uint256",
          "name": "budget",
          "type": "uint256"
        }
      ],
      "name": "submitAdvertisement",
      "outputs": [],
      "stateMutability": "payable",
      "type": "function",
      "payable": true
    },
    {
      "inputs": [],
      "name": "getAdvertisements",
      "outputs": [
        {
          "components": [
            {
              "internalType": "address",
              "name": "owner",
              "type": "address"
            },
            {
              "internalType": "uint256",
              "name": "budget",
              "type": "uint256"
            },
            {
              "internalType": "string",
              "name": "ipfsHash",
              "type": "string"
            },
            {
              "internalType": "string",
              "name": "tag",
              "type": "string"
            },
            {
              "internalType": "uint256",
              "name": "id",
              "type": "uint256"
            },
            {
              "internalType": "bool",
              "name": "isChecked",
              "type": "bool"
            },
            {
              "internalType": "bool",
              "name": "isAppropriate",
              "type": "bool"
            },
            {
              "internalType": "address[]",
              "name": "visitors",
              "type": "address[]"
            },
            {
              "internalType": "int256",
              "name": "websiteId",
              "type": "int256"
            }
          ],
          "internalType": "struct Advertisements.Advertisement[]",
          "name": "",
          "type": "tuple[]"
        }
      ],
      "stateMutability": "view",
      "type": "function",
      "constant": true
    },
    {
      "inputs": [
        {
          "internalType": "uint256",
          "name": "adID",
          "type": "uint256"
        }
      ],
      "name": "getAdvertisementWithId",
      "outputs": [
        {
          "components": [
            {
              "internalType": "address",
              "name": "owner",
              "type": "address"
            },
            {
              "internalType": "uint256",
              "name": "budget",
              "type": "uint256"
            },
            {
              "internalType": "string",
              "name": "ipfsHash",
              "type": "string"
            },
            {
              "internalType": "string",
              "name": "tag",
              "type": "string"
            },
            {
              "internalType": "uint256",
              "name": "id",
              "type": "uint256"
            },
            {
              "internalType": "bool",
              "name": "isChecked",
              "type": "bool"
            },
            {
              "internalType": "bool",
              "name": "isAppropriate",
              "type": "bool"
            },
            {
              "internalType": "address[]",
              "name": "visitors",
              "type": "address[]"
            },
            {
              "internalType": "int256",
              "name": "websiteId",
              "type": "int256"
            }
          ],
          "internalType": "struct Advertisements.Advertisement",
          "name": "",
          "type": "tuple"
        }
      ],
      "stateMutability": "view",
      "type": "function",
      "constant": true
    },
    {
      "inputs": [
        {
          "internalType": "uint256",
          "name": "adID",
          "type": "uint256"
        },
        {
          "internalType": "bool",
          "name": "appropriate",
          "type": "bool"
        }
      ],
      "name": "updateAdvertisementWithAIKnowledge",
      "outputs": [],
      "stateMutability": "nonpayable",
      "type": "function"
    },
    {
      "inputs": [],
      "name": "getCountOfAdvertisementsWithoutWebsite",
      "outputs": [
        {
          "internalType": "uint256",
          "name": "",
          "type": "uint256"
        }
      ],
      "stateMutability": "view",
      "type": "function",
      "constant": true
    },
    {
      "inputs": [],
      "name": "getAdvertisementsWithoutWebsite",
      "outputs": [
        {
          "components": [
            {
              "internalType": "address",
              "name": "owner",
              "type": "address"
            },
            {
              "internalType": "uint256",
              "name": "budget",
              "type": "uint256"
            },
            {
              "internalType": "string",
              "name": "ipfsHash",
              "type": "string"
            },
            {
              "internalType": "string",
              "name": "tag",
              "type": "string"
            },
            {
              "internalType": "uint256",
              "name": "id",
              "type": "uint256"
            },
            {
              "internalType": "bool",
              "name": "isChecked",
              "type": "bool"
            },
            {
              "internalType": "bool",
              "name": "isAppropriate",
              "type": "bool"
            },
            {
              "internalType": "address[]",
              "name": "visitors",
              "type": "address[]"
            },
            {
              "internalType": "int256",
              "name": "websiteId",
              "type": "int256"
            }
          ],
          "internalType": "struct Advertisements.Advertisement[]",
          "name": "",
          "type": "tuple[]"
        }
      ],
      "stateMutability": "view",
      "type": "function",
      "constant": true
    },
    {
      "inputs": [
        {
          "internalType": "uint256",
          "name": "adID",
          "type": "uint256"
        },
        {
          "internalType": "int256",
          "name": "websiteID",
          "type": "int256"
        }
      ],
      "name": "updateAdvertisementWebsite",
      "outputs": [],
      "stateMutability": "nonpayable",
      "type": "function"
    }
  ],
  "bytecode": "0x608060405234801561001057600080fd5b5060008081905550611c76806100276000396000f3fe6080604052600436106100705760003560e01c8063419a90471161004e578063419a9047146100e557806374c100631461010e578063ab111d8b14610139578063f67c66d61461016457610070565b806304694b281461007557806307e0bb9b146100a05780632093bb4b146100c9575b600080fd5b34801561008157600080fd5b5061008a6101a1565b6040516100979190611677565b60405180910390f35b3480156100ac57600080fd5b506100c760048036038101906100c29190611705565b610598565b005b6100e360048036038101906100de919061187a565b6105ed565b005b3480156100f157600080fd5b5061010c60048036038101906101079190611931565b61082c565b005b34801561011a57600080fd5b50610123610851565b6040516101309190611980565b60405180910390f35b34801561014557600080fd5b5061014e610b49565b60405161015b9190611677565b60405180910390f35b34801561017057600080fd5b5061018b6004803603810190610186919061199b565b610ee9565b6040516101989190611a9b565b60405180910390f35b606060006101ad610851565b905060008167ffffffffffffffff8111156101cb576101ca61174f565b5b60405190808252806020026020018201604052801561020457816020015b6101f1611179565b8152602001906001900390816101e95790505b5090506000805b60005481101561058e57600060016000838152602001908152602001600020604051806101200160405290816000820160009054906101000a900473ffffffffffffffffffffffffffffffffffffffff1673ffffffffffffffffffffffffffffffffffffffff1673ffffffffffffffffffffffffffffffffffffffff168152602001600182015481526020016002820180546102a690611aec565b80601f01602080910402602001604051908101604052809291908181526020018280546102d290611aec565b801561031f5780601f106102f45761010080835404028352916020019161031f565b820191906000526020600020905b81548152906001019060200180831161030257829003601f168201915b5050505050815260200160038201805461033890611aec565b80601f016020809104026020016040519081016040528092919081815260200182805461036490611aec565b80156103b15780601f10610386576101008083540402835291602001916103b1565b820191906000526020600020905b81548152906001019060200180831161039457829003601f168201915b50505050508152602001600482015481526020016005820160009054906101000a900460ff161515151581526020016005820160019054906101000a900460ff161515151581526020016006820180548060200260200160405190810160405280929190818152602001828054801561047f57602002820191906000526020600020905b8160009054906101000a900473ffffffffffffffffffffffffffffffffffffffff1673ffffffffffffffffffffffffffffffffffffffff1681526020019060010190808311610435575b5050505050815260200160078201548152505090507fffffffffffffffffffffffffffffffffffffffffffffffffffffffffffffffff8161010001511480156104c957508060c001515b1561057a57604051806101200160405280826000015173ffffffffffffffffffffffffffffffffffffffff168152602001826020015181526020018260400151815260200182606001518152602001826080015181526020018260a00151151581526020018260c00151151581526020018260e0015181526020018261010001518152508484815181106105605761055f611b1d565b5b6020026020010181905250828061057690611b7b565b9350505b50808061058690611b7b565b91505061020b565b5081935050505090565b600060016000848152602001908152602001600020905060018160050160006101000a81548160ff021916908315150217905550818160050160016101000a81548160ff021916908315150217905550505050565b80341015610630576040517f08c379a000000000000000000000000000000000000000000000000000000000815260040161062790611c20565b60405180910390fd5b60008067ffffffffffffffff81111561064c5761064b61174f565b5b60405190808252806020026020018201604052801561067a5781602001602082028036833780820191505090505b5090506040518061012001604052803373ffffffffffffffffffffffffffffffffffffffff16815260200183815260200185815260200184815260200160005481526020016000151581526020016000151581526020018281526020017fffffffffffffffffffffffffffffffffffffffffffffffffffffffffffffffff815250600160008054815260200190815260200160002060008201518160000160006101000a81548173ffffffffffffffffffffffffffffffffffffffff021916908373ffffffffffffffffffffffffffffffffffffffff16021790555060208201518160010155604082015181600201908051906020019061077c9291906111df565b5060608201518160030190805190602001906107999291906111df565b506080820151816004015560a08201518160050160006101000a81548160ff02191690831515021790555060c08201518160050160016101000a81548160ff02191690831515021790555060e0820151816006019080519060200190610800929190611265565b50610100820151816007015590505060008081548092919061082190611b7b565b919050555050505050565b6000600160008481526020019081526020016000209050818160070181905550505050565b6000806000905060005b600054811015610b4157600060016000838152602001908152602001600020604051806101200160405290816000820160009054906101000a900473ffffffffffffffffffffffffffffffffffffffff1673ffffffffffffffffffffffffffffffffffffffff1673ffffffffffffffffffffffffffffffffffffffff168152602001600182015481526020016002820180546108f690611aec565b80601f016020809104026020016040519081016040528092919081815260200182805461092290611aec565b801561096f5780601f106109445761010080835404028352916020019161096f565b820191906000526020600020905b81548152906001019060200180831161095257829003601f168201915b5050505050815260200160038201805461098890611aec565b80601f01602080910402602001604051908101604052809291908181526020018280546109b490611aec565b8015610a015780601f106109d657610100808354040283529160200191610a01565b820191906000526020600020905b8154815290600101906020018083116109e457829003601f168201915b50505050508152602001600482015481526020016005820160009054906101000a900460ff161515151581526020016005820160019054906101000a900460ff1615151515815260200160068201805480602002602001604051908101604052809291908181526020018280548015610acf57602002820191906000526020600020905b8160009054906101000a900473ffffffffffffffffffffffffffffffffffffffff1673ffffffffffffffffffffffffffffffffffffffff1681526020019060010190808311610a85575b5050505050815260200160078201548152505090507fffffffffffffffffffffffffffffffffffffffffffffffffffffffffffffffff816101000151148015610b1957508060c001515b15610b2d578280610b2990611b7b565b9350505b508080610b3990611b7b565b91505061085b565b508091505090565b60606000805467ffffffffffffffff811115610b6857610b6761174f565b5b604051908082528060200260200182016040528015610ba157816020015b610b8e611179565b815260200190600190039081610b865790505b50905060005b600054811015610ee157600060016000838152602001908152602001600020604051806101200160405290816000820160009054906101000a900473ffffffffffffffffffffffffffffffffffffffff1673ffffffffffffffffffffffffffffffffffffffff1673ffffffffffffffffffffffffffffffffffffffff16815260200160018201548152602001600282018054610c4290611aec565b80601f0160208091040260200160405190810160405280929190818152602001828054610c6e90611aec565b8015610cbb5780601f10610c9057610100808354040283529160200191610cbb565b820191906000526020600020905b815481529060010190602001808311610c9e57829003601f168201915b50505050508152602001600382018054610cd490611aec565b80601f0160208091040260200160405190810160405280929190818152602001828054610d0090611aec565b8015610d4d5780601f10610d2257610100808354040283529160200191610d4d565b820191906000526020600020905b815481529060010190602001808311610d3057829003601f168201915b50505050508152602001600482015481526020016005820160009054906101000a900460ff161515151581526020016005820160019054906101000a900460ff1615151515815260200160068201805480602002602001604051908101604052809291908181526020018280548015610e1b57602002820191906000526020600020905b8160009054906101000a900473ffffffffffffffffffffffffffffffffffffffff1673ffffffffffffffffffffffffffffffffffffffff1681526020019060010190808311610dd1575b505050505081526020016007820154815250509050604051806101200160405280826000015173ffffffffffffffffffffffffffffffffffffffff168152602001826020015181526020018260400151815260200182606001518152602001826080015181526020018260a00151151581526020018260c00151151581526020018260e001518152602001826101000151815250838381518110610ec257610ec1611b1d565b5b6020026020010181905250508080610ed990611b7b565b915050610ba7565b508091505090565b610ef1611179565b600060016000848152602001908152602001600020604051806101200160405290816000820160009054906101000a900473ffffffffffffffffffffffffffffffffffffffff1673ffffffffffffffffffffffffffffffffffffffff1673ffffffffffffffffffffffffffffffffffffffff16815260200160018201548152602001600282018054610f8290611aec565b80601f0160208091040260200160405190810160405280929190818152602001828054610fae90611aec565b8015610ffb5780601f10610fd057610100808354040283529160200191610ffb565b820191906000526020600020905b815481529060010190602001808311610fde57829003601f168201915b5050505050815260200160038201805461101490611aec565b80601f016020809104026020016040519081016040528092919081815260200182805461104090611aec565b801561108d5780601f106110625761010080835404028352916020019161108d565b820191906000526020600020905b81548152906001019060200180831161107057829003601f168201915b50505050508152602001600482015481526020016005820160009054906101000a900460ff161515151581526020016005820160019054906101000a900460ff161515151581526020016006820180548060200260200160405190810160405280929190818152602001828054801561115b57602002820191906000526020600020905b8160009054906101000a900473ffffffffffffffffffffffffffffffffffffffff1673ffffffffffffffffffffffffffffffffffffffff1681526020019060010190808311611111575b50505050508152602001600782015481525050905080915050919050565b604051806101200160405280600073ffffffffffffffffffffffffffffffffffffffff1681526020016000815260200160608152602001606081526020016000815260200160001515815260200160001515815260200160608152602001600081525090565b8280546111eb90611aec565b90600052602060002090601f01602090048101928261120d5760008555611254565b82601f1061122657805160ff1916838001178555611254565b82800160010185558215611254579182015b82811115611253578251825591602001919060010190611238565b5b50905061126191906112ef565b5090565b8280548282559060005260206000209081019282156112de579160200282015b828111156112dd5782518260006101000a81548173ffffffffffffffffffffffffffffffffffffffff021916908373ffffffffffffffffffffffffffffffffffffffff16021790555091602001919060010190611285565b5b5090506112eb91906112ef565b5090565b5b808211156113085760008160009055506001016112f0565b5090565b600081519050919050565b600082825260208201905092915050565b6000819050602082019050919050565b600073ffffffffffffffffffffffffffffffffffffffff82169050919050565b600061136382611338565b9050919050565b61137381611358565b82525050565b6000819050919050565b61138c81611379565b82525050565b600081519050919050565b600082825260208201905092915050565b60005b838110156113cc5780820151818401526020810190506113b1565b838111156113db576000848401525b50505050565b6000601f19601f8301169050919050565b60006113fd82611392565b611407818561139d565b93506114178185602086016113ae565b611420816113e1565b840191505092915050565b60008115159050919050565b6114408161142b565b82525050565b600081519050919050565b600082825260208201905092915050565b6000819050602082019050919050565b600061147e838361136a565b60208301905092915050565b6000602082019050919050565b60006114a282611446565b6114ac8185611451565b93506114b783611462565b8060005b838110156114e85781516114cf8882611472565b97506114da8361148a565b9250506001810190506114bb565b5085935050505092915050565b6000819050919050565b611508816114f5565b82525050565b600061012083016000830151611527600086018261136a565b50602083015161153a6020860182611383565b506040830151848203604086015261155282826113f2565b9150506060830151848203606086015261156c82826113f2565b91505060808301516115816080860182611383565b5060a083015161159460a0860182611437565b5060c08301516115a760c0860182611437565b5060e083015184820360e08601526115bf8282611497565b9150506101008301516115d66101008601826114ff565b508091505092915050565b60006115ed838361150e565b905092915050565b6000602082019050919050565b600061160d8261130c565b6116178185611317565b93508360208202850161162985611328565b8060005b85811015611665578484038952815161164685826115e1565b9450611651836115f5565b925060208a0199505060018101905061162d565b50829750879550505050505092915050565b600060208201905081810360008301526116918184611602565b905092915050565b6000604051905090565b600080fd5b600080fd5b6116b681611379565b81146116c157600080fd5b50565b6000813590506116d3816116ad565b92915050565b6116e28161142b565b81146116ed57600080fd5b50565b6000813590506116ff816116d9565b92915050565b6000806040838503121561171c5761171b6116a3565b5b600061172a858286016116c4565b925050602061173b858286016116f0565b9150509250929050565b600080fd5b600080fd5b7f4e487b7100000000000000000000000000000000000000000000000000000000600052604160045260246000fd5b611787826113e1565b810181811067ffffffffffffffff821117156117a6576117a561174f565b5b80604052505050565b60006117b9611699565b90506117c5828261177e565b919050565b600067ffffffffffffffff8211156117e5576117e461174f565b5b6117ee826113e1565b9050602081019050919050565b82818337600083830152505050565b600061181d611818846117ca565b6117af565b9050828152602081018484840111156118395761183861174a565b5b6118448482856117fb565b509392505050565b600082601f83011261186157611860611745565b5b813561187184826020860161180a565b91505092915050565b600080600060608486031215611893576118926116a3565b5b600084013567ffffffffffffffff8111156118b1576118b06116a8565b5b6118bd8682870161184c565b935050602084013567ffffffffffffffff8111156118de576118dd6116a8565b5b6118ea8682870161184c565b92505060406118fb868287016116c4565b9150509250925092565b61190e816114f5565b811461191957600080fd5b50565b60008135905061192b81611905565b92915050565b60008060408385031215611948576119476116a3565b5b6000611956858286016116c4565b92505060206119678582860161191c565b9150509250929050565b61197a81611379565b82525050565b60006020820190506119956000830184611971565b92915050565b6000602082840312156119b1576119b06116a3565b5b60006119bf848285016116c4565b91505092915050565b6000610120830160008301516119e1600086018261136a565b5060208301516119f46020860182611383565b5060408301518482036040860152611a0c82826113f2565b91505060608301518482036060860152611a2682826113f2565b9150506080830151611a3b6080860182611383565b5060a0830151611a4e60a0860182611437565b5060c0830151611a6160c0860182611437565b5060e083015184820360e0860152611a798282611497565b915050610100830151611a906101008601826114ff565b508091505092915050565b60006020820190508181036000830152611ab581846119c8565b905092915050565b7f4e487b7100000000000000000000000000000000000000000000000000000000600052602260045260246000fd5b60006002820490506001821680611b0457607f821691505b602082108103611b1757611b16611abd565b5b50919050565b7f4e487b7100000000000000000000000000000000000000000000000000000000600052603260045260246000fd5b7f4e487b7100000000000000000000000000000000000000000000000000000000600052601160045260246000fd5b6000611b8682611379565b91507fffffffffffffffffffffffffffffffffffffffffffffffffffffffffffffffff8203611bb857611bb7611b4c565b5b600182019050919050565b600082825260208201905092915050565b7f42756467657420676f616c206e6f74206d657421000000000000000000000000600082015250565b6000611c0a601483611bc3565b9150611c1582611bd4565b602082019050919050565b60006020820190508181036000830152611c3981611bfd565b905091905056fea26469706673582212204f4ffb01ada3a373faace56b355a187d9918f775dbbff3cae25206b574c19ab064736f6c634300080d0033",
  "immutableReferences": {},
  "source": "pragma solidity >=0.4.22 <0.9.0;\n\ncontract Advertisements {\n    uint256 id;\n\n    constructor() {\n      id = 0;\n    }\n\n    struct Advertisement {\n        address owner;\n        uint256 budget;\n        string ipfsHash;\n        string tag;\n        uint256 id;\n        bool isChecked;\n        bool isAppropriate;\n        address[] visitors;\n        int256 websiteId;\n    }\n\n    mapping(uint256 => Advertisement) idToAdvertisement;\n\n    function submitAdvertisement(string memory ipfsHash, string memory tag, uint256 budget) public payable {\n        require(msg.value >= budget, \"Budget goal not met!\");\n        address[] memory visitors = new address[](0);\n        idToAdvertisement[id] = Advertisement(msg.sender, budget, ipfsHash, tag, id, false, false, visitors, -1);\n        id++;\n    }\n\n    function getAdvertisements() public view returns(Advertisement[] memory) {\n        Advertisement[] memory advertisements = new Advertisement[](id);\n        for(uint256 i = 0; i < id; i++) {\n            Advertisement memory ad = idToAdvertisement[i];\n            advertisements[i] = Advertisement(ad.owner, ad.budget, ad.ipfsHash, ad.tag, ad.id, ad.isChecked, ad.isAppropriate, ad.visitors, ad.websiteId);\n        }\n        return advertisements;\n    }\n\n    function getAdvertisementWithId(uint256 adID) public view returns(Advertisement memory){\n        Advertisement memory ad = idToAdvertisement[adID];\n        return ad;\n    }\n\n    function updateAdvertisementWithAIKnowledge(uint256 adID, bool appropriate) public {\n        Advertisement storage ad = idToAdvertisement[adID];\n        ad.isChecked = true;\n        ad.isAppropriate = appropriate;\n    }\n\n    function getCountOfAdvertisementsWithoutWebsite() public view returns(uint256) {\n        uint256 count = 0;\n        for (uint256 i = 0; i < id; i++) {\n            Advertisement memory ad = idToAdvertisement[i];\n            if(ad.websiteId == -1 && ad.isAppropriate) {\n                count++;\n            }\n        }\n        return count;\n    }\n\n    function getAdvertisementsWithoutWebsite() public view returns(Advertisement[] memory) {\n        uint256 countOfAdsWithoutWebsite = getCountOfAdvertisementsWithoutWebsite();\n        Advertisement[] memory advertisements = new Advertisement[](countOfAdsWithoutWebsite);\n\n        uint256 j = 0;\n        for(uint256 i = 0; i < id; i++) {\n            Advertisement memory ad = idToAdvertisement[i];\n            if (ad.websiteId == -1 && ad.isAppropriate) {\n                advertisements[j] = Advertisement(ad.owner, ad.budget, ad.ipfsHash, ad.tag, ad.id, ad.isChecked, ad.isAppropriate, ad.visitors, ad.websiteId);\n                j++;\n            }\n        }\n        return advertisements;\n    }\n\n    function updateAdvertisementWebsite(uint256 adID, int256 websiteID) public {\n        Advertisement storage ad = idToAdvertisement[adID];\n        ad.websiteId = websiteID;\n    }\n}",
  "sourcePath": "/Users/zane/Documents/Faks/Magistrski studij/1. letnik/2. semester/Racunalnistvo v megli za pametne storitve/Project/ad-agency/smart_contracts/contracts/Advertisements.sol",
  "compiler": {
    "name": "solc",
    "version": "0.8.13+commit.abaa5c0e.Emscripten.clang"
  },
  "schemaVersion": "3.4.13",
  "updatedAt": "2023-05-28T19:43:44.711Z",
  "networkType": "ethereum",
  "devdoc": {
    "kind": "dev",
    "methods": {},
    "version": 1
  },
  "userdoc": {
    "kind": "user",
    "methods": {},
    "version": 1
  }
}