{
  "contractName": "Advertisements",
  "abi": [
    {
      "inputs": [],
      "stateMutability": "nonpayable",
      "type": "constructor"
    },
    {
      "inputs": [
        {
          "internalType": "string",
          "name": "ipfsHash",
          "type": "string"
        },
        {
          "internalType": "string",
          "name": "tag",
          "type": "string"
        },
        {
          "internalType": "uint256",
          "name": "budget",
          "type": "uint256"
        }
      ],
      "name": "submitAdvertisement",
      "outputs": [],
      "stateMutability": "payable",
      "type": "function",
      "payable": true
    },
    {
      "inputs": [],
      "name": "getAdvertisements",
      "outputs": [
        {
          "components": [
            {
              "internalType": "address",
              "name": "owner",
              "type": "address"
            },
            {
              "internalType": "uint256",
              "name": "budget",
              "type": "uint256"
            },
            {
              "internalType": "string",
              "name": "ipfsHash",
              "type": "string"
            },
            {
              "internalType": "string",
              "name": "tag",
              "type": "string"
            },
            {
              "internalType": "uint256",
              "name": "id",
              "type": "uint256"
            }
          ],
          "internalType": "struct Advertisements.Advertisement[]",
          "name": "",
          "type": "tuple[]"
        }
      ],
      "stateMutability": "view",
      "type": "function",
      "constant": true
    }
  ],
  "bytecode": "0x608060405234801561001057600080fd5b5060008081905550610b57806100276000396000f3fe6080604052600436106100295760003560e01c80632093bb4b1461002e578063ab111d8b1461004a575b600080fd5b610048600480360381019061004391906106da565b610075565b005b34801561005657600080fd5b5061005f6101bf565b60405161006c919061097c565b60405180910390f35b803410156100b8576040517f08c379a00000000000000000000000000000000000000000000000000000000081526004016100af906109fb565b60405180910390fd5b6040518060a001604052803373ffffffffffffffffffffffffffffffffffffffff168152602001828152602001848152602001838152602001600054815250600160008054815260200190815260200160002060008201518160000160006101000a81548173ffffffffffffffffffffffffffffffffffffffff021916908373ffffffffffffffffffffffffffffffffffffffff160217905550602082015181600101556040820151816002019080519060200190610178929190610462565b506060820151816003019080519060200190610195929190610462565b50608082015181600401559050506000808154809291906101b590610a4a565b9190505550505050565b60606000805467ffffffffffffffff8111156101de576101dd610579565b5b60405190808252806020026020018201604052801561021757816020015b6102046104e8565b8152602001906001900390816101fc5790505b50905060005b60005481101561045a576000600160008381526020019081526020016000206040518060a00160405290816000820160009054906101000a900473ffffffffffffffffffffffffffffffffffffffff1673ffffffffffffffffffffffffffffffffffffffff1673ffffffffffffffffffffffffffffffffffffffff168152602001600182015481526020016002820180546102b790610ac1565b80601f01602080910402602001604051908101604052809291908181526020018280546102e390610ac1565b80156103305780601f1061030557610100808354040283529160200191610330565b820191906000526020600020905b81548152906001019060200180831161031357829003601f168201915b5050505050815260200160038201805461034990610ac1565b80601f016020809104026020016040519081016040528092919081815260200182805461037590610ac1565b80156103c25780601f10610397576101008083540402835291602001916103c2565b820191906000526020600020905b8154815290600101906020018083116103a557829003601f168201915b5050505050815260200160048201548152505090506040518060a00160405280826000015173ffffffffffffffffffffffffffffffffffffffff168152602001826020015181526020018260400151815260200182606001518152602001826080015181525083838151811061043b5761043a610af2565b5b602002602001018190525050808061045290610a4a565b91505061021d565b508091505090565b82805461046e90610ac1565b90600052602060002090601f01602090048101928261049057600085556104d7565b82601f106104a957805160ff19168380011785556104d7565b828001600101855582156104d7579182015b828111156104d65782518255916020019190600101906104bb565b5b5090506104e4919061052d565b5090565b6040518060a00160405280600073ffffffffffffffffffffffffffffffffffffffff168152602001600081526020016060815260200160608152602001600081525090565b5b8082111561054657600081600090555060010161052e565b5090565b6000604051905090565b600080fd5b600080fd5b600080fd5b600080fd5b6000601f19601f8301169050919050565b7f4e487b7100000000000000000000000000000000000000000000000000000000600052604160045260246000fd5b6105b182610568565b810181811067ffffffffffffffff821117156105d0576105cf610579565b5b80604052505050565b60006105e361054a565b90506105ef82826105a8565b919050565b600067ffffffffffffffff82111561060f5761060e610579565b5b61061882610568565b9050602081019050919050565b82818337600083830152505050565b6000610647610642846105f4565b6105d9565b90508281526020810184848401111561066357610662610563565b5b61066e848285610625565b509392505050565b600082601f83011261068b5761068a61055e565b5b813561069b848260208601610634565b91505092915050565b6000819050919050565b6106b7816106a4565b81146106c257600080fd5b50565b6000813590506106d4816106ae565b92915050565b6000806000606084860312156106f3576106f2610554565b5b600084013567ffffffffffffffff81111561071157610710610559565b5b61071d86828701610676565b935050602084013567ffffffffffffffff81111561073e5761073d610559565b5b61074a86828701610676565b925050604061075b868287016106c5565b9150509250925092565b600081519050919050565b600082825260208201905092915050565b6000819050602082019050919050565b600073ffffffffffffffffffffffffffffffffffffffff82169050919050565b60006107bc82610791565b9050919050565b6107cc816107b1565b82525050565b6107db816106a4565b82525050565b600081519050919050565b600082825260208201905092915050565b60005b8381101561081b578082015181840152602081019050610800565b8381111561082a576000848401525b50505050565b600061083b826107e1565b61084581856107ec565b93506108558185602086016107fd565b61085e81610568565b840191505092915050565b600060a08301600083015161088160008601826107c3565b50602083015161089460208601826107d2565b50604083015184820360408601526108ac8282610830565b915050606083015184820360608601526108c68282610830565b91505060808301516108db60808601826107d2565b508091505092915050565b60006108f28383610869565b905092915050565b6000602082019050919050565b600061091282610765565b61091c8185610770565b93508360208202850161092e85610781565b8060005b8581101561096a578484038952815161094b85826108e6565b9450610956836108fa565b925060208a01995050600181019050610932565b50829750879550505050505092915050565b600060208201905081810360008301526109968184610907565b905092915050565b600082825260208201905092915050565b7f42756467657420676f616c206e6f74206d657421000000000000000000000000600082015250565b60006109e560148361099e565b91506109f0826109af565b602082019050919050565b60006020820190508181036000830152610a14816109d8565b9050919050565b7f4e487b7100000000000000000000000000000000000000000000000000000000600052601160045260246000fd5b6000610a55826106a4565b91507fffffffffffffffffffffffffffffffffffffffffffffffffffffffffffffffff8203610a8757610a86610a1b565b5b600182019050919050565b7f4e487b7100000000000000000000000000000000000000000000000000000000600052602260045260246000fd5b60006002820490506001821680610ad957607f821691505b602082108103610aec57610aeb610a92565b5b50919050565b7f4e487b7100000000000000000000000000000000000000000000000000000000600052603260045260246000fdfea2646970667358221220225eb9d023efb3636046758a7212fbfe633432785d6932ebc2ac5ffebedd784764736f6c634300080d0033",
  "immutableReferences": {},
  "source": "pragma solidity >=0.4.22 <0.9.0;\n\ncontract Advertisements {\n    uint256 id;\n\n    constructor() {\n      id = 0;\n    }\n\n    struct Advertisement {\n        address owner;\n        uint256 budget;\n        string ipfsHash;\n        string tag;\n        uint256 id;\n    }\n\n    mapping(uint256 => Advertisement) idToAdvertisement;\n\n    function submitAdvertisement(string memory ipfsHash, string memory tag, uint256 budget) public payable {\n        require(msg.value >= budget, \"Budget goal not met!\");\n        idToAdvertisement[id] = Advertisement(msg.sender, budget, ipfsHash, tag, id);\n        id++;\n    }\n\n    function getAdvertisements() public view returns(Advertisement[] memory) {\n        Advertisement[] memory advertisements = new Advertisement[](id);\n        for(uint256 i = 0; i < id; i++) {\n            Advertisement memory ad = idToAdvertisement[i];\n            advertisements[i] = Advertisement(ad.owner, ad.budget, ad.ipfsHash, ad.tag, ad.id);\n        }\n        return advertisements;\n    }\n}",
  "sourcePath": "/Users/zane/Documents/Faks/Magistrski studij/1. letnik/2. semester/Racunalnistvo v megli za pametne storitve/Project/ad-agency/smart_contracts/contracts/Advertisements.sol",
  "compiler": {
    "name": "solc",
    "version": "0.8.13+commit.abaa5c0e.Emscripten.clang"
  },
  "schemaVersion": "3.4.13",
  "updatedAt": "2023-05-28T00:41:25.136Z",
  "networkType": "ethereum",
  "devdoc": {
    "kind": "dev",
    "methods": {},
    "version": 1
  },
  "userdoc": {
    "kind": "user",
    "methods": {},
    "version": 1
  }
}