{
  "contractName": "Advertisements",
  "abi": [
    {
      "inputs": [],
      "stateMutability": "nonpayable",
      "type": "constructor"
    },
    {
      "inputs": [
        {
          "internalType": "string",
          "name": "ipfsHash",
          "type": "string"
        },
        {
          "internalType": "string",
          "name": "tag",
          "type": "string"
        },
        {
          "internalType": "uint256",
          "name": "budget",
          "type": "uint256"
        }
      ],
      "name": "submitAdvertisement",
      "outputs": [],
      "stateMutability": "payable",
      "type": "function",
      "payable": true
    },
    {
      "inputs": [],
      "name": "getAdvertisements",
      "outputs": [
        {
          "components": [
            {
              "internalType": "address payable",
              "name": "owner",
              "type": "address"
            },
            {
              "internalType": "uint256",
              "name": "budget",
              "type": "uint256"
            },
            {
              "internalType": "string",
              "name": "ipfsHash",
              "type": "string"
            },
            {
              "internalType": "string",
              "name": "tag",
              "type": "string"
            },
            {
              "internalType": "uint256",
              "name": "id",
              "type": "uint256"
            },
            {
              "internalType": "bool",
              "name": "isChecked",
              "type": "bool"
            },
            {
              "internalType": "bool",
              "name": "isAppropriate",
              "type": "bool"
            },
            {
              "internalType": "address payable[]",
              "name": "visitors",
              "type": "address[]"
            },
            {
              "internalType": "int256",
              "name": "websiteId",
              "type": "int256"
            },
            {
              "internalType": "bool",
              "name": "isClosed",
              "type": "bool"
            }
          ],
          "internalType": "struct Advertisements.Advertisement[]",
          "name": "",
          "type": "tuple[]"
        }
      ],
      "stateMutability": "view",
      "type": "function",
      "constant": true
    },
    {
      "inputs": [
        {
          "internalType": "address",
          "name": "addr",
          "type": "address"
        }
      ],
      "name": "getCountOfAdvertisementsForAddress",
      "outputs": [
        {
          "internalType": "uint256",
          "name": "",
          "type": "uint256"
        }
      ],
      "stateMutability": "view",
      "type": "function",
      "constant": true
    },
    {
      "inputs": [
        {
          "internalType": "address",
          "name": "addr",
          "type": "address"
        }
      ],
      "name": "getAdvertisementsForAddress",
      "outputs": [
        {
          "components": [
            {
              "internalType": "address payable",
              "name": "owner",
              "type": "address"
            },
            {
              "internalType": "uint256",
              "name": "budget",
              "type": "uint256"
            },
            {
              "internalType": "string",
              "name": "ipfsHash",
              "type": "string"
            },
            {
              "internalType": "string",
              "name": "tag",
              "type": "string"
            },
            {
              "internalType": "uint256",
              "name": "id",
              "type": "uint256"
            },
            {
              "internalType": "bool",
              "name": "isChecked",
              "type": "bool"
            },
            {
              "internalType": "bool",
              "name": "isAppropriate",
              "type": "bool"
            },
            {
              "internalType": "address payable[]",
              "name": "visitors",
              "type": "address[]"
            },
            {
              "internalType": "int256",
              "name": "websiteId",
              "type": "int256"
            },
            {
              "internalType": "bool",
              "name": "isClosed",
              "type": "bool"
            }
          ],
          "internalType": "struct Advertisements.Advertisement[]",
          "name": "",
          "type": "tuple[]"
        }
      ],
      "stateMutability": "view",
      "type": "function",
      "constant": true
    },
    {
      "inputs": [
        {
          "internalType": "uint256",
          "name": "adID",
          "type": "uint256"
        }
      ],
      "name": "getAdvertisementWithId",
      "outputs": [
        {
          "components": [
            {
              "internalType": "address payable",
              "name": "owner",
              "type": "address"
            },
            {
              "internalType": "uint256",
              "name": "budget",
              "type": "uint256"
            },
            {
              "internalType": "string",
              "name": "ipfsHash",
              "type": "string"
            },
            {
              "internalType": "string",
              "name": "tag",
              "type": "string"
            },
            {
              "internalType": "uint256",
              "name": "id",
              "type": "uint256"
            },
            {
              "internalType": "bool",
              "name": "isChecked",
              "type": "bool"
            },
            {
              "internalType": "bool",
              "name": "isAppropriate",
              "type": "bool"
            },
            {
              "internalType": "address payable[]",
              "name": "visitors",
              "type": "address[]"
            },
            {
              "internalType": "int256",
              "name": "websiteId",
              "type": "int256"
            },
            {
              "internalType": "bool",
              "name": "isClosed",
              "type": "bool"
            }
          ],
          "internalType": "struct Advertisements.Advertisement",
          "name": "",
          "type": "tuple"
        }
      ],
      "stateMutability": "view",
      "type": "function",
      "constant": true
    },
    {
      "inputs": [
        {
          "internalType": "uint256",
          "name": "adID",
          "type": "uint256"
        },
        {
          "internalType": "bool",
          "name": "appropriate",
          "type": "bool"
        }
      ],
      "name": "updateAdvertisementWithAIKnowledge",
      "outputs": [],
      "stateMutability": "nonpayable",
      "type": "function"
    },
    {
      "inputs": [],
      "name": "getCountOfAdvertisementsWithoutWebsite",
      "outputs": [
        {
          "internalType": "uint256",
          "name": "",
          "type": "uint256"
        }
      ],
      "stateMutability": "view",
      "type": "function",
      "constant": true
    },
    {
      "inputs": [
        {
          "internalType": "int256",
          "name": "websiteID",
          "type": "int256"
        }
      ],
      "name": "getAdvertisementForWebsite",
      "outputs": [
        {
          "components": [
            {
              "internalType": "address payable",
              "name": "owner",
              "type": "address"
            },
            {
              "internalType": "uint256",
              "name": "budget",
              "type": "uint256"
            },
            {
              "internalType": "string",
              "name": "ipfsHash",
              "type": "string"
            },
            {
              "internalType": "string",
              "name": "tag",
              "type": "string"
            },
            {
              "internalType": "uint256",
              "name": "id",
              "type": "uint256"
            },
            {
              "internalType": "bool",
              "name": "isChecked",
              "type": "bool"
            },
            {
              "internalType": "bool",
              "name": "isAppropriate",
              "type": "bool"
            },
            {
              "internalType": "address payable[]",
              "name": "visitors",
              "type": "address[]"
            },
            {
              "internalType": "int256",
              "name": "websiteId",
              "type": "int256"
            },
            {
              "internalType": "bool",
              "name": "isClosed",
              "type": "bool"
            }
          ],
          "internalType": "struct Advertisements.Advertisement",
          "name": "",
          "type": "tuple"
        }
      ],
      "stateMutability": "view",
      "type": "function",
      "constant": true
    },
    {
      "inputs": [],
      "name": "getAdvertisementsWithoutWebsite",
      "outputs": [
        {
          "components": [
            {
              "internalType": "address payable",
              "name": "owner",
              "type": "address"
            },
            {
              "internalType": "uint256",
              "name": "budget",
              "type": "uint256"
            },
            {
              "internalType": "string",
              "name": "ipfsHash",
              "type": "string"
            },
            {
              "internalType": "string",
              "name": "tag",
              "type": "string"
            },
            {
              "internalType": "uint256",
              "name": "id",
              "type": "uint256"
            },
            {
              "internalType": "bool",
              "name": "isChecked",
              "type": "bool"
            },
            {
              "internalType": "bool",
              "name": "isAppropriate",
              "type": "bool"
            },
            {
              "internalType": "address payable[]",
              "name": "visitors",
              "type": "address[]"
            },
            {
              "internalType": "int256",
              "name": "websiteId",
              "type": "int256"
            },
            {
              "internalType": "bool",
              "name": "isClosed",
              "type": "bool"
            }
          ],
          "internalType": "struct Advertisements.Advertisement[]",
          "name": "",
          "type": "tuple[]"
        }
      ],
      "stateMutability": "view",
      "type": "function",
      "constant": true
    },
    {
      "inputs": [
        {
          "internalType": "address",
          "name": "addr",
          "type": "address"
        }
      ],
      "name": "getNumberOfVisitsForAddress",
      "outputs": [
        {
          "internalType": "uint256",
          "name": "",
          "type": "uint256"
        }
      ],
      "stateMutability": "view",
      "type": "function",
      "constant": true
    },
    {
      "inputs": [
        {
          "internalType": "uint256",
          "name": "adID",
          "type": "uint256"
        },
        {
          "internalType": "int256",
          "name": "websiteID",
          "type": "int256"
        }
      ],
      "name": "updateAdvertisementWebsite",
      "outputs": [],
      "stateMutability": "nonpayable",
      "type": "function"
    },
    {
      "inputs": [
        {
          "internalType": "uint256",
          "name": "adID",
          "type": "uint256"
        }
      ],
      "name": "appendVisitorToAdvertisement",
      "outputs": [],
      "stateMutability": "nonpayable",
      "type": "function"
    },
    {
      "inputs": [
        {
          "internalType": "uint256",
          "name": "adID",
          "type": "uint256"
        },
        {
          "internalType": "address payable",
          "name": "websiteOwner",
          "type": "address"
        }
      ],
      "name": "closeAdvertisementAndSplitTheRewards",
      "outputs": [],
      "stateMutability": "nonpayable",
      "type": "function"
    }
  ],
  "bytecode": "0x608060405234801561001057600080fd5b5060008081905550613365806100276000396000f3fe6080604052600436106100c25760003560e01c806374c100631161007f578063c97b0bbb11610059578063c97b0bbb14610259578063d3a08b2414610296578063f67c66d6146102bf578063f6ebeb73146102fc576100c2565b806374c10063146101c6578063806009e9146101f1578063ab111d8b1461022e576100c2565b806304694b28146100c757806307e0bb9b146100f25780632093bb4b1461011b57806334fa81ea14610137578063419a9047146101605780634a33c53814610189575b600080fd5b3480156100d357600080fd5b506100dc610339565b6040516100e99190612b2b565b60405180910390f35b3480156100fe57600080fd5b5061011960048036038101906101149190612bb9565b610767565b005b61013560048036038101906101309190612d2e565b6107bc565b005b34801561014357600080fd5b5061015e60048036038101906101599190612db9565b610a25565b005b34801561016c57600080fd5b5061018760048036038101906101829190612e12565b610aa5565b005b34801561019557600080fd5b506101b060048036038101906101ab9190612e52565b610bca565b6040516101bd9190612f67565b60405180910390f35b3480156101d257600080fd5b506101db610f3a565b6040516101e89190612f98565b60405180910390f35b3480156101fd57600080fd5b5061021860048036038101906102139190612ff1565b61125c565b6040516102259190612f98565b60405180910390f35b34801561023a57600080fd5b506102436115ac565b6040516102509190612b2b565b60405180910390f35b34801561026557600080fd5b50610280600480360381019061027b9190612ff1565b611974565b60405161028d9190612f98565b60405180910390f35b3480156102a257600080fd5b506102bd60048036038101906102b8919061304a565b611c86565b005b3480156102cb57600080fd5b506102e660048036038101906102e19190612db9565b611f45565b6040516102f39190612f67565b60405180910390f35b34801561030857600080fd5b50610323600480360381019061031e9190612ff1565b6121f0565b6040516103309190612b2b565b60405180910390f35b60606000610345610f3a565b905060008167ffffffffffffffff81111561036357610362612c03565b5b60405190808252806020026020018201604052801561039c57816020015b61038961260f565b8152602001906001900390816103815790505b5090506000805b60005481101561075d57600060016000838152602001908152602001600020604051806101400160405290816000820160009054906101000a900473ffffffffffffffffffffffffffffffffffffffff1673ffffffffffffffffffffffffffffffffffffffff1673ffffffffffffffffffffffffffffffffffffffff1681526020016001820154815260200160028201805461043e906130b9565b80601f016020809104026020016040519081016040528092919081815260200182805461046a906130b9565b80156104b75780601f1061048c576101008083540402835291602001916104b7565b820191906000526020600020905b81548152906001019060200180831161049a57829003601f168201915b505050505081526020016003820180546104d0906130b9565b80601f01602080910402602001604051908101604052809291908181526020018280546104fc906130b9565b80156105495780601f1061051e57610100808354040283529160200191610549565b820191906000526020600020905b81548152906001019060200180831161052c57829003601f168201915b50505050508152602001600482015481526020016005820160009054906101000a900460ff161515151581526020016005820160019054906101000a900460ff161515151581526020016006820180548060200260200160405190810160405280929190818152602001828054801561061757602002820191906000526020600020905b8160009054906101000a900473ffffffffffffffffffffffffffffffffffffffff1673ffffffffffffffffffffffffffffffffffffffff16815260200190600101908083116105cd575b50505050508152602001600782015481526020016008820160009054906101000a900460ff16151515158152505090507fffffffffffffffffffffffffffffffffffffffffffffffffffffffffffffffff81610100015114801561067c57508060c001515b801561068b5750806101200151155b1561074957604051806101400160405280826000015173ffffffffffffffffffffffffffffffffffffffff168152602001826020015181526020018260400151815260200182606001518152602001826080015181526020018260a00151151581526020018260c00151151581526020018260e0015181526020018261010001518152602001826101200151151581525084848151811061072f5761072e6130ea565b5b6020026020010181905250828061074590613148565b9350505b50808061075590613148565b9150506103a3565b5081935050505090565b600060016000848152602001908152602001600020905060018160050160006101000a81548160ff021916908315150217905550818160050160016101000a81548160ff021916908315150217905550505050565b803410156107ff576040517f08c379a00000000000000000000000000000000000000000000000000000000081526004016107f6906131ed565b60405180910390fd5b60008067ffffffffffffffff81111561081b5761081a612c03565b5b6040519080825280602002602001820160405280156108495781602001602082028036833780820191505090505b5090506040518061014001604052803373ffffffffffffffffffffffffffffffffffffffff16815260200183815260200185815260200184815260200160005481526020016000151581526020016000151581526020018281526020017fffffffffffffffffffffffffffffffffffffffffffffffffffffffffffffffff815260200160001515815250600160008054815260200190815260200160002060008201518160000160006101000a81548173ffffffffffffffffffffffffffffffffffffffff021916908373ffffffffffffffffffffffffffffffffffffffff16021790555060208201518160010155604082015181600201908051906020019061095492919061267e565b50606082015181600301908051906020019061097192919061267e565b506080820151816004015560a08201518160050160006101000a81548160ff02191690831515021790555060c08201518160050160016101000a81548160ff02191690831515021790555060e08201518160060190805190602001906109d8929190612704565b5061010082015181600701556101208201518160080160006101000a81548160ff021916908315150217905550905050600080815480929190610a1a90613148565b919050555050505050565b600060016000838152602001908152602001600020905080600601339080600181540180825580915050600190039060005260206000200160009091909190916101000a81548173ffffffffffffffffffffffffffffffffffffffff021916908373ffffffffffffffffffffffffffffffffffffffff1602179055505050565b60005b600054811015610b1257600060016000838152602001908152602001600020905082816007015403610afe577fffffffffffffffffffffffffffffffffffffffffffffffffffffffffffffffff81600701819055505b508080610b0a90613148565b915050610aa8565b5060006001600084815260200190815260200160002090508060000160009054906101000a900473ffffffffffffffffffffffffffffffffffffffff1673ffffffffffffffffffffffffffffffffffffffff163373ffffffffffffffffffffffffffffffffffffffff1614610bbc576040517f08c379a0000000000000000000000000000000000000000000000000000000008152600401610bb390613259565b60405180910390fd5b818160070181905550505050565b610bd261260f565b610bda61260f565b60005b600054811015610f3057600060016000838152602001908152602001600020604051806101400160405290816000820160009054906101000a900473ffffffffffffffffffffffffffffffffffffffff1673ffffffffffffffffffffffffffffffffffffffff1673ffffffffffffffffffffffffffffffffffffffff16815260200160018201548152602001600282018054610c78906130b9565b80601f0160208091040260200160405190810160405280929190818152602001828054610ca4906130b9565b8015610cf15780601f10610cc657610100808354040283529160200191610cf1565b820191906000526020600020905b815481529060010190602001808311610cd457829003601f168201915b50505050508152602001600382018054610d0a906130b9565b80601f0160208091040260200160405190810160405280929190818152602001828054610d36906130b9565b8015610d835780601f10610d5857610100808354040283529160200191610d83565b820191906000526020600020905b815481529060010190602001808311610d6657829003601f168201915b50505050508152602001600482015481526020016005820160009054906101000a900460ff161515151581526020016005820160019054906101000a900460ff1615151515815260200160068201805480602002602001604051908101604052809291908181526020018280548015610e5157602002820191906000526020600020905b8160009054906101000a900473ffffffffffffffffffffffffffffffffffffffff1673ffffffffffffffffffffffffffffffffffffffff1681526020019060010190808311610e07575b50505050508152602001600782015481526020016008820160009054906101000a900460ff16151515158152505090508481610100015103610f1c57604051806101400160405280826000015173ffffffffffffffffffffffffffffffffffffffff168152602001826020015181526020018260400151815260200182606001518152602001826080015181526020018260a00151151581526020018260c00151151581526020018260e0015181526020018261010001518152602001826101200151151581525092505b508080610f2890613148565b915050610bdd565b5080915050919050565b6000806000905060005b60005481101561125457600060016000838152602001908152602001600020604051806101400160405290816000820160009054906101000a900473ffffffffffffffffffffffffffffffffffffffff1673ffffffffffffffffffffffffffffffffffffffff1673ffffffffffffffffffffffffffffffffffffffff16815260200160018201548152602001600282018054610fdf906130b9565b80601f016020809104026020016040519081016040528092919081815260200182805461100b906130b9565b80156110585780601f1061102d57610100808354040283529160200191611058565b820191906000526020600020905b81548152906001019060200180831161103b57829003601f168201915b50505050508152602001600382018054611071906130b9565b80601f016020809104026020016040519081016040528092919081815260200182805461109d906130b9565b80156110ea5780601f106110bf576101008083540402835291602001916110ea565b820191906000526020600020905b8154815290600101906020018083116110cd57829003601f168201915b50505050508152602001600482015481526020016005820160009054906101000a900460ff161515151581526020016005820160019054906101000a900460ff16151515158152602001600682018054806020026020016040519081016040528092919081815260200182805480156111b857602002820191906000526020600020905b8160009054906101000a900473ffffffffffffffffffffffffffffffffffffffff1673ffffffffffffffffffffffffffffffffffffffff168152602001906001019080831161116e575b50505050508152602001600782015481526020016008820160009054906101000a900460ff16151515158152505090507fffffffffffffffffffffffffffffffffffffffffffffffffffffffffffffffff81610100015114801561121d57508060c001515b801561122c5750806101200151155b1561124057828061123c90613148565b9350505b50808061124c90613148565b915050610f44565b508091505090565b6000806000905060005b6000548110156115a257600060016000838152602001908152602001600020604051806101400160405290816000820160009054906101000a900473ffffffffffffffffffffffffffffffffffffffff1673ffffffffffffffffffffffffffffffffffffffff1673ffffffffffffffffffffffffffffffffffffffff16815260200160018201548152602001600282018054611301906130b9565b80601f016020809104026020016040519081016040528092919081815260200182805461132d906130b9565b801561137a5780601f1061134f5761010080835404028352916020019161137a565b820191906000526020600020905b81548152906001019060200180831161135d57829003601f168201915b50505050508152602001600382018054611393906130b9565b80601f01602080910402602001604051908101604052809291908181526020018280546113bf906130b9565b801561140c5780601f106113e15761010080835404028352916020019161140c565b820191906000526020600020905b8154815290600101906020018083116113ef57829003601f168201915b50505050508152602001600482015481526020016005820160009054906101000a900460ff161515151581526020016005820160019054906101000a900460ff16151515158152602001600682018054806020026020016040519081016040528092919081815260200182805480156114da57602002820191906000526020600020905b8160009054906101000a900473ffffffffffffffffffffffffffffffffffffffff1673ffffffffffffffffffffffffffffffffffffffff1681526020019060010190808311611490575b50505050508152602001600782015481526020016008820160009054906101000a900460ff161515151581525050905060005b8160e001515181101561158d578573ffffffffffffffffffffffffffffffffffffffff168260e001518281518110611548576115476130ea565b5b602002602001015173ffffffffffffffffffffffffffffffffffffffff160361157a57838061157690613148565b9450505b808061158590613148565b91505061150d565b5050808061159a90613148565b915050611266565b5080915050919050565b60606000805467ffffffffffffffff8111156115cb576115ca612c03565b5b60405190808252806020026020018201604052801561160457816020015b6115f161260f565b8152602001906001900390816115e95790505b50905060005b60005481101561196c57600060016000838152602001908152602001600020604051806101400160405290816000820160009054906101000a900473ffffffffffffffffffffffffffffffffffffffff1673ffffffffffffffffffffffffffffffffffffffff1673ffffffffffffffffffffffffffffffffffffffff168152602001600182015481526020016002820180546116a5906130b9565b80601f01602080910402602001604051908101604052809291908181526020018280546116d1906130b9565b801561171e5780601f106116f35761010080835404028352916020019161171e565b820191906000526020600020905b81548152906001019060200180831161170157829003601f168201915b50505050508152602001600382018054611737906130b9565b80601f0160208091040260200160405190810160405280929190818152602001828054611763906130b9565b80156117b05780601f10611785576101008083540402835291602001916117b0565b820191906000526020600020905b81548152906001019060200180831161179357829003601f168201915b50505050508152602001600482015481526020016005820160009054906101000a900460ff161515151581526020016005820160019054906101000a900460ff161515151581526020016006820180548060200260200160405190810160405280929190818152602001828054801561187e57602002820191906000526020600020905b8160009054906101000a900473ffffffffffffffffffffffffffffffffffffffff1673ffffffffffffffffffffffffffffffffffffffff1681526020019060010190808311611834575b50505050508152602001600782015481526020016008820160009054906101000a900460ff1615151515815250509050604051806101400160405280826000015173ffffffffffffffffffffffffffffffffffffffff168152602001826020015181526020018260400151815260200182606001518152602001826080015181526020018260a00151151581526020018260c00151151581526020018260e0015181526020018261010001518152602001826101200151151581525083838151811061194d5761194c6130ea565b5b602002602001018190525050808061196490613148565b91505061160a565b508091505090565b6000806000905060005b600054811015611c7c57600060016000838152602001908152602001600020604051806101400160405290816000820160009054906101000a900473ffffffffffffffffffffffffffffffffffffffff1673ffffffffffffffffffffffffffffffffffffffff1673ffffffffffffffffffffffffffffffffffffffff16815260200160018201548152602001600282018054611a19906130b9565b80601f0160208091040260200160405190810160405280929190818152602001828054611a45906130b9565b8015611a925780601f10611a6757610100808354040283529160200191611a92565b820191906000526020600020905b815481529060010190602001808311611a7557829003601f168201915b50505050508152602001600382018054611aab906130b9565b80601f0160208091040260200160405190810160405280929190818152602001828054611ad7906130b9565b8015611b245780601f10611af957610100808354040283529160200191611b24565b820191906000526020600020905b815481529060010190602001808311611b0757829003601f168201915b50505050508152602001600482015481526020016005820160009054906101000a900460ff161515151581526020016005820160019054906101000a900460ff1615151515815260200160068201805480602002602001604051908101604052809291908181526020018280548015611bf257602002820191906000526020600020905b8160009054906101000a900473ffffffffffffffffffffffffffffffffffffffff1673ffffffffffffffffffffffffffffffffffffffff1681526020019060010190808311611ba8575b50505050508152602001600782015481526020016008820160009054906101000a900460ff16151515158152505090508473ffffffffffffffffffffffffffffffffffffffff16816000015173ffffffffffffffffffffffffffffffffffffffff1603611c68578280611c6490613148565b9350505b508080611c7490613148565b91505061197e565b5080915050919050565b60006001600084815260200190815260200160002090508060000160009054906101000a900473ffffffffffffffffffffffffffffffffffffffff1673ffffffffffffffffffffffffffffffffffffffff163373ffffffffffffffffffffffffffffffffffffffff1614611d2f576040517f08c379a0000000000000000000000000000000000000000000000000000000008152600401611d2690613259565b60405180910390fd5b60018160080160006101000a81548160ff0219169083151502179055507fffffffffffffffffffffffffffffffffffffffffffffffffffffffffffffffff8160070181905550600060018260060180549050611d8b9190613279565b905060008160028460010154611da191906132fe565b611dab91906132fe565b9050600060048460010154611dc091906132fe565b9050600060048560010154611dd591906132fe565b905060005b8560060180549050811015611e89576000866006018281548110611e0157611e006130ea565b5b9060005260206000200160009054906101000a900473ffffffffffffffffffffffffffffffffffffffff1690508073ffffffffffffffffffffffffffffffffffffffff166108fc869081150290604051600060405180830381858888f19350505050158015611e74573d6000803e3d6000fd5b50508080611e8190613148565b915050611dda565b508573ffffffffffffffffffffffffffffffffffffffff166108fc839081150290604051600060405180830381858888f19350505050158015611ed0573d6000803e3d6000fd5b508460000160009054906101000a900473ffffffffffffffffffffffffffffffffffffffff1673ffffffffffffffffffffffffffffffffffffffff166108fc829081150290604051600060405180830381858888f19350505050158015611f3b573d6000803e3d6000fd5b5050505050505050565b611f4d61260f565b600060016000848152602001908152602001600020604051806101400160405290816000820160009054906101000a900473ffffffffffffffffffffffffffffffffffffffff1673ffffffffffffffffffffffffffffffffffffffff1673ffffffffffffffffffffffffffffffffffffffff16815260200160018201548152602001600282018054611fde906130b9565b80601f016020809104026020016040519081016040528092919081815260200182805461200a906130b9565b80156120575780601f1061202c57610100808354040283529160200191612057565b820191906000526020600020905b81548152906001019060200180831161203a57829003601f168201915b50505050508152602001600382018054612070906130b9565b80601f016020809104026020016040519081016040528092919081815260200182805461209c906130b9565b80156120e95780601f106120be576101008083540402835291602001916120e9565b820191906000526020600020905b8154815290600101906020018083116120cc57829003601f168201915b50505050508152602001600482015481526020016005820160009054906101000a900460ff161515151581526020016005820160019054906101000a900460ff16151515158152602001600682018054806020026020016040519081016040528092919081815260200182805480156121b757602002820191906000526020600020905b8160009054906101000a900473ffffffffffffffffffffffffffffffffffffffff1673ffffffffffffffffffffffffffffffffffffffff168152602001906001019080831161216d575b50505050508152602001600782015481526020016008820160009054906101000a900460ff161515151581525050905080915050919050565b606060006121fd83611974565b905060008167ffffffffffffffff81111561221b5761221a612c03565b5b60405190808252806020026020018201604052801561225457816020015b61224161260f565b8152602001906001900390816122395790505b5090506000805b60005481101561260357600060016000838152602001908152602001600020604051806101400160405290816000820160009054906101000a900473ffffffffffffffffffffffffffffffffffffffff1673ffffffffffffffffffffffffffffffffffffffff1673ffffffffffffffffffffffffffffffffffffffff168152602001600182015481526020016002820180546122f6906130b9565b80601f0160208091040260200160405190810160405280929190818152602001828054612322906130b9565b801561236f5780601f106123445761010080835404028352916020019161236f565b820191906000526020600020905b81548152906001019060200180831161235257829003601f168201915b50505050508152602001600382018054612388906130b9565b80601f01602080910402602001604051908101604052809291908181526020018280546123b4906130b9565b80156124015780601f106123d657610100808354040283529160200191612401565b820191906000526020600020905b8154815290600101906020018083116123e457829003601f168201915b50505050508152602001600482015481526020016005820160009054906101000a900460ff161515151581526020016005820160019054906101000a900460ff16151515158152602001600682018054806020026020016040519081016040528092919081815260200182805480156124cf57602002820191906000526020600020905b8160009054906101000a900473ffffffffffffffffffffffffffffffffffffffff1673ffffffffffffffffffffffffffffffffffffffff1681526020019060010190808311612485575b50505050508152602001600782015481526020016008820160009054906101000a900460ff16151515158152505090508673ffffffffffffffffffffffffffffffffffffffff16816000015173ffffffffffffffffffffffffffffffffffffffff16036125ef57604051806101400160405280826000015173ffffffffffffffffffffffffffffffffffffffff168152602001826020015181526020018260400151815260200182606001518152602001826080015181526020018260a00151151581526020018260c00151151581526020018260e001518152602001826101000151815260200182610120015115158152508484815181106125d5576125d46130ea565b5b602002602001018190525082806125eb90613148565b9350505b5080806125fb90613148565b91505061225b565b50819350505050919050565b604051806101400160405280600073ffffffffffffffffffffffffffffffffffffffff1681526020016000815260200160608152602001606081526020016000815260200160001515815260200160001515815260200160608152602001600081526020016000151581525090565b82805461268a906130b9565b90600052602060002090601f0160209004810192826126ac57600085556126f3565b82601f106126c557805160ff19168380011785556126f3565b828001600101855582156126f3579182015b828111156126f25782518255916020019190600101906126d7565b5b509050612700919061278e565b5090565b82805482825590600052602060002090810192821561277d579160200282015b8281111561277c5782518260006101000a81548173ffffffffffffffffffffffffffffffffffffffff021916908373ffffffffffffffffffffffffffffffffffffffff16021790555091602001919060010190612724565b5b50905061278a919061278e565b5090565b5b808211156127a757600081600090555060010161278f565b5090565b600081519050919050565b600082825260208201905092915050565b6000819050602082019050919050565b600073ffffffffffffffffffffffffffffffffffffffff82169050919050565b6000612802826127d7565b9050919050565b612812816127f7565b82525050565b6000819050919050565b61282b81612818565b82525050565b600081519050919050565b600082825260208201905092915050565b60005b8381101561286b578082015181840152602081019050612850565b8381111561287a576000848401525b50505050565b6000601f19601f8301169050919050565b600061289c82612831565b6128a6818561283c565b93506128b681856020860161284d565b6128bf81612880565b840191505092915050565b60008115159050919050565b6128df816128ca565b82525050565b600081519050919050565b600082825260208201905092915050565b6000819050602082019050919050565b600061291d8383612809565b60208301905092915050565b6000602082019050919050565b6000612941826128e5565b61294b81856128f0565b935061295683612901565b8060005b8381101561298757815161296e8882612911565b975061297983612929565b92505060018101905061295a565b5085935050505092915050565b6000819050919050565b6129a781612994565b82525050565b6000610140830160008301516129c66000860182612809565b5060208301516129d96020860182612822565b50604083015184820360408601526129f18282612891565b91505060608301518482036060860152612a0b8282612891565b9150506080830151612a206080860182612822565b5060a0830151612a3360a08601826128d6565b5060c0830151612a4660c08601826128d6565b5060e083015184820360e0860152612a5e8282612936565b915050610100830151612a7561010086018261299e565b50610120830151612a8a6101208601826128d6565b508091505092915050565b6000612aa183836129ad565b905092915050565b6000602082019050919050565b6000612ac1826127ab565b612acb81856127b6565b935083602082028501612add856127c7565b8060005b85811015612b195784840389528151612afa8582612a95565b9450612b0583612aa9565b925060208a01995050600181019050612ae1565b50829750879550505050505092915050565b60006020820190508181036000830152612b458184612ab6565b905092915050565b6000604051905090565b600080fd5b600080fd5b612b6a81612818565b8114612b7557600080fd5b50565b600081359050612b8781612b61565b92915050565b612b96816128ca565b8114612ba157600080fd5b50565b600081359050612bb381612b8d565b92915050565b60008060408385031215612bd057612bcf612b57565b5b6000612bde85828601612b78565b9250506020612bef85828601612ba4565b9150509250929050565b600080fd5b600080fd5b7f4e487b7100000000000000000000000000000000000000000000000000000000600052604160045260246000fd5b612c3b82612880565b810181811067ffffffffffffffff82111715612c5a57612c59612c03565b5b80604052505050565b6000612c6d612b4d565b9050612c798282612c32565b919050565b600067ffffffffffffffff821115612c9957612c98612c03565b5b612ca282612880565b9050602081019050919050565b82818337600083830152505050565b6000612cd1612ccc84612c7e565b612c63565b905082815260208101848484011115612ced57612cec612bfe565b5b612cf8848285612caf565b509392505050565b600082601f830112612d1557612d14612bf9565b5b8135612d25848260208601612cbe565b91505092915050565b600080600060608486031215612d4757612d46612b57565b5b600084013567ffffffffffffffff811115612d6557612d64612b5c565b5b612d7186828701612d00565b935050602084013567ffffffffffffffff811115612d9257612d91612b5c565b5b612d9e86828701612d00565b9250506040612daf86828701612b78565b9150509250925092565b600060208284031215612dcf57612dce612b57565b5b6000612ddd84828501612b78565b91505092915050565b612def81612994565b8114612dfa57600080fd5b50565b600081359050612e0c81612de6565b92915050565b60008060408385031215612e2957612e28612b57565b5b6000612e3785828601612b78565b9250506020612e4885828601612dfd565b9150509250929050565b600060208284031215612e6857612e67612b57565b5b6000612e7684828501612dfd565b91505092915050565b600061014083016000830151612e986000860182612809565b506020830151612eab6020860182612822565b5060408301518482036040860152612ec38282612891565b91505060608301518482036060860152612edd8282612891565b9150506080830151612ef26080860182612822565b5060a0830151612f0560a08601826128d6565b5060c0830151612f1860c08601826128d6565b5060e083015184820360e0860152612f308282612936565b915050610100830151612f4761010086018261299e565b50610120830151612f5c6101208601826128d6565b508091505092915050565b60006020820190508181036000830152612f818184612e7f565b905092915050565b612f9281612818565b82525050565b6000602082019050612fad6000830184612f89565b92915050565b6000612fbe826127d7565b9050919050565b612fce81612fb3565b8114612fd957600080fd5b50565b600081359050612feb81612fc5565b92915050565b60006020828403121561300757613006612b57565b5b600061301584828501612fdc565b91505092915050565b613027816127f7565b811461303257600080fd5b50565b6000813590506130448161301e565b92915050565b6000806040838503121561306157613060612b57565b5b600061306f85828601612b78565b925050602061308085828601613035565b9150509250929050565b7f4e487b7100000000000000000000000000000000000000000000000000000000600052602260045260246000fd5b600060028204905060018216806130d157607f821691505b6020821081036130e4576130e361308a565b5b50919050565b7f4e487b7100000000000000000000000000000000000000000000000000000000600052603260045260246000fd5b7f4e487b7100000000000000000000000000000000000000000000000000000000600052601160045260246000fd5b600061315382612818565b91507fffffffffffffffffffffffffffffffffffffffffffffffffffffffffffffffff820361318557613184613119565b5b600182019050919050565b600082825260208201905092915050565b7f42756467657420676f616c206e6f74206d657421000000000000000000000000600082015250565b60006131d7601483613190565b91506131e2826131a1565b602082019050919050565b60006020820190508181036000830152613206816131ca565b9050919050565b7f596f7520617265206e6f7420746865206164206f776e65722100000000000000600082015250565b6000613243601983613190565b915061324e8261320d565b602082019050919050565b6000602082019050818103600083015261327281613236565b9050919050565b600061328482612818565b915061328f83612818565b9250827fffffffffffffffffffffffffffffffffffffffffffffffffffffffffffffffff038211156132c4576132c3613119565b5b828201905092915050565b7f4e487b7100000000000000000000000000000000000000000000000000000000600052601260045260246000fd5b600061330982612818565b915061331483612818565b925082613324576133236132cf565b5b82820490509291505056fea2646970667358221220a56da34ed00f7ec0779dcf0ed31093f69f9961f98c18124e8abb01be59ac7ddf64736f6c634300080d0033",
  "immutableReferences": {},
  "source": "pragma solidity >=0.4.22 <0.9.0;\n\ncontract Advertisements {\n    uint256 id;\n\n    constructor() {\n      id = 0;\n    }\n\n    struct Advertisement {\n        address payable owner;\n        uint256 budget;\n        string ipfsHash;\n        string tag;\n        uint256 id;\n        bool isChecked;\n        bool isAppropriate;\n        address payable[] visitors;\n        int256 websiteId;\n        bool isClosed;\n    }\n    mapping(uint256 => Advertisement) idToAdvertisement;\n\n    function submitAdvertisement(string memory ipfsHash, string memory tag, uint256 budget) public payable {\n        require(msg.value >= budget, \"Budget goal not met!\");\n        address payable[] memory visitors = new address payable[](0);\n        idToAdvertisement[id] = Advertisement(payable(msg.sender), budget, ipfsHash, tag, id, false, false, visitors, -1, false);\n        id++;\n    }\n\n    function getAdvertisements() public view returns(Advertisement[] memory) {\n        Advertisement[] memory advertisements = new Advertisement[](id);\n        for(uint256 i = 0; i < id; i++) {\n            Advertisement memory ad = idToAdvertisement[i];\n            advertisements[i] = Advertisement(ad.owner, ad.budget, ad.ipfsHash, ad.tag, ad.id, ad.isChecked, ad.isAppropriate, ad.visitors, ad.websiteId, ad.isClosed);\n        }\n        return advertisements;\n    }\n\n    function getCountOfAdvertisementsForAddress(address addr) public view returns(uint256) {\n        uint256 count = 0;\n        for (uint256 i = 0; i < id; i++) {\n            Advertisement memory ad = idToAdvertisement[i];\n            if(ad.owner == addr) {\n                count++;\n            }\n        }\n        return count;\n    }\n\n    function getAdvertisementsForAddress(address addr) public view returns(Advertisement[] memory) {\n        uint256 countOfAdvertisementsForAddress = getCountOfAdvertisementsForAddress(addr);\n        Advertisement[] memory advertisements = new Advertisement[](countOfAdvertisementsForAddress);\n\n        uint256 j = 0;\n        for(uint256 i = 0; i < id; i++) {\n            Advertisement memory ad = idToAdvertisement[i];\n            if (ad.owner == addr) {\n                advertisements[j] = Advertisement(ad.owner, ad.budget, ad.ipfsHash, ad.tag, ad.id, ad.isChecked, ad.isAppropriate, ad.visitors, ad.websiteId, ad.isClosed);\n                j++;\n            }\n        }\n        return advertisements;\n    }\n\n    function getAdvertisementWithId(uint256 adID) public view returns(Advertisement memory){\n        Advertisement memory ad = idToAdvertisement[adID];\n        return ad;\n    }\n\n    function updateAdvertisementWithAIKnowledge(uint256 adID, bool appropriate) public {\n        Advertisement storage ad = idToAdvertisement[adID];\n        ad.isChecked = true;\n        ad.isAppropriate = appropriate;\n    }\n\n    function getCountOfAdvertisementsWithoutWebsite() public view returns(uint256) {\n        uint256 count = 0;\n        for (uint256 i = 0; i < id; i++) {\n            Advertisement memory ad = idToAdvertisement[i];\n            if(ad.websiteId == -1 && ad.isAppropriate && !ad.isClosed) {\n                count++;\n            }\n        }\n        return count;\n    }\n\n    function getAdvertisementForWebsite(int256 websiteID) public view returns(Advertisement memory) {\n        Advertisement memory ad;\n        for(uint256 i = 0; i < id; i++) {\n            Advertisement memory tempAd = idToAdvertisement[i];\n            if (tempAd.websiteId == websiteID) {\n                ad = Advertisement(tempAd.owner, tempAd.budget, tempAd.ipfsHash, tempAd.tag, tempAd.id, tempAd.isChecked, tempAd.isAppropriate, tempAd.visitors, tempAd.websiteId, tempAd.isClosed);\n            }\n        }\n        return ad;\n    }\n\n    function getAdvertisementsWithoutWebsite() public view returns(Advertisement[] memory) {\n        uint256 countOfAdsWithoutWebsite = getCountOfAdvertisementsWithoutWebsite();\n        Advertisement[] memory advertisements = new Advertisement[](countOfAdsWithoutWebsite);\n\n        uint256 j = 0;\n        for(uint256 i = 0; i < id; i++) {\n            Advertisement memory ad = idToAdvertisement[i];\n            if (ad.websiteId == -1 && ad.isAppropriate && !ad.isClosed) {\n                advertisements[j] = Advertisement(ad.owner, ad.budget, ad.ipfsHash, ad.tag, ad.id, ad.isChecked, ad.isAppropriate, ad.visitors, ad.websiteId, ad.isClosed);\n                j++;\n            }\n        }\n        return advertisements;\n    }\n\n    function getNumberOfVisitsForAddress(address addr) public view returns(uint256) {\n        uint256 count = 0;\n        for(uint256 i = 0; i < id; i++) {\n            Advertisement memory tempAd = idToAdvertisement[i];\n            for (uint256 j = 0; j < tempAd.visitors.length; j++) {\n                if (tempAd.visitors[j] == addr) {\n                    count++;\n                }\n            }\n        }\n        return count;\n    }\n\n    function updateAdvertisementWebsite(uint256 adID, int256 websiteID) public {\n        for(uint256 i = 0; i < id; i++) {\n            Advertisement storage tempAd = idToAdvertisement[i];\n            if (tempAd.websiteId == websiteID) {\n                tempAd.websiteId = -1;\n            }\n        }\n        Advertisement storage ad = idToAdvertisement[adID];\n        require(msg.sender == ad.owner, \"You are not the ad owner!\");\n        ad.websiteId = websiteID;\n    }\n\n    function appendVisitorToAdvertisement(uint256 adID) public {\n        Advertisement storage ad = idToAdvertisement[adID];\n        ad.visitors.push(payable(msg.sender));\n    }\n\n    function closeAdvertisementAndSplitTheRewards(uint256 adID, address payable websiteOwner) public {\n        Advertisement storage ad = idToAdvertisement[adID];\n        require(msg.sender == ad.owner, \"You are not the ad owner!\");\n        ad.isClosed = true;\n        ad.websiteId = -1;\n        uint256 numberVisitors = ad.visitors.length + 1;\n        uint256 rewardPerVisitor = (ad.budget / 2) / numberVisitors;\n        uint256 rewardForWebsiteOwner = ad.budget / 4;\n        uint256 rewardForAdvertiser = ad.budget / 4;\n        for (uint256 i = 0; i < ad.visitors.length; i++) {\n            address payable visitor = ad.visitors[i];\n            visitor.transfer(rewardPerVisitor);\n        }\n        websiteOwner.transfer(rewardForWebsiteOwner);\n        ad.owner.transfer(rewardForAdvertiser);\n    }\n}",
  "sourcePath": "/Users/zane/Documents/Faks/Magistrski studij/1. letnik/2. semester/Racunalnistvo v megli za pametne storitve/Project/ad-agency/smart_contracts/contracts/Advertisements.sol",
  "compiler": {
    "name": "solc",
    "version": "0.8.13+commit.abaa5c0e.Emscripten.clang"
  },
  "schemaVersion": "3.4.13",
  "updatedAt": "2023-05-29T13:41:32.211Z",
  "networkType": "ethereum",
  "devdoc": {
    "kind": "dev",
    "methods": {},
    "version": 1
  },
  "userdoc": {
    "kind": "user",
    "methods": {},
    "version": 1
  }
}