{
  "contractName": "Advertisements",
  "abi": [
    {
      "inputs": [],
      "stateMutability": "nonpayable",
      "type": "constructor"
    },
    {
      "inputs": [
        {
          "internalType": "string",
          "name": "ipfsHash",
          "type": "string"
        },
        {
          "internalType": "string",
          "name": "tag",
          "type": "string"
        },
        {
          "internalType": "uint256",
          "name": "budget",
          "type": "uint256"
        }
      ],
      "name": "submitAdvertisement",
      "outputs": [],
      "stateMutability": "payable",
      "type": "function",
      "payable": true
    },
    {
      "inputs": [],
      "name": "getAdvertisements",
      "outputs": [
        {
          "components": [
            {
              "internalType": "address payable",
              "name": "owner",
              "type": "address"
            },
            {
              "internalType": "uint256",
              "name": "budget",
              "type": "uint256"
            },
            {
              "internalType": "string",
              "name": "ipfsHash",
              "type": "string"
            },
            {
              "internalType": "string",
              "name": "tag",
              "type": "string"
            },
            {
              "internalType": "uint256",
              "name": "id",
              "type": "uint256"
            },
            {
              "internalType": "bool",
              "name": "isChecked",
              "type": "bool"
            },
            {
              "internalType": "bool",
              "name": "isAppropriate",
              "type": "bool"
            },
            {
              "internalType": "address payable[]",
              "name": "visitors",
              "type": "address[]"
            },
            {
              "internalType": "int256",
              "name": "websiteId",
              "type": "int256"
            }
          ],
          "internalType": "struct Advertisements.Advertisement[]",
          "name": "",
          "type": "tuple[]"
        }
      ],
      "stateMutability": "view",
      "type": "function",
      "constant": true
    },
    {
      "inputs": [
        {
          "internalType": "uint256",
          "name": "adID",
          "type": "uint256"
        }
      ],
      "name": "getAdvertisementWithId",
      "outputs": [
        {
          "components": [
            {
              "internalType": "address payable",
              "name": "owner",
              "type": "address"
            },
            {
              "internalType": "uint256",
              "name": "budget",
              "type": "uint256"
            },
            {
              "internalType": "string",
              "name": "ipfsHash",
              "type": "string"
            },
            {
              "internalType": "string",
              "name": "tag",
              "type": "string"
            },
            {
              "internalType": "uint256",
              "name": "id",
              "type": "uint256"
            },
            {
              "internalType": "bool",
              "name": "isChecked",
              "type": "bool"
            },
            {
              "internalType": "bool",
              "name": "isAppropriate",
              "type": "bool"
            },
            {
              "internalType": "address payable[]",
              "name": "visitors",
              "type": "address[]"
            },
            {
              "internalType": "int256",
              "name": "websiteId",
              "type": "int256"
            }
          ],
          "internalType": "struct Advertisements.Advertisement",
          "name": "",
          "type": "tuple"
        }
      ],
      "stateMutability": "view",
      "type": "function",
      "constant": true
    },
    {
      "inputs": [
        {
          "internalType": "uint256",
          "name": "adID",
          "type": "uint256"
        },
        {
          "internalType": "bool",
          "name": "appropriate",
          "type": "bool"
        }
      ],
      "name": "updateAdvertisementWithAIKnowledge",
      "outputs": [],
      "stateMutability": "nonpayable",
      "type": "function"
    },
    {
      "inputs": [],
      "name": "getCountOfAdvertisementsWithoutWebsite",
      "outputs": [
        {
          "internalType": "uint256",
          "name": "",
          "type": "uint256"
        }
      ],
      "stateMutability": "view",
      "type": "function",
      "constant": true
    },
    {
      "inputs": [
        {
          "internalType": "int256",
          "name": "websiteID",
          "type": "int256"
        }
      ],
      "name": "getAdvertisementForWebsite",
      "outputs": [
        {
          "components": [
            {
              "internalType": "address payable",
              "name": "owner",
              "type": "address"
            },
            {
              "internalType": "uint256",
              "name": "budget",
              "type": "uint256"
            },
            {
              "internalType": "string",
              "name": "ipfsHash",
              "type": "string"
            },
            {
              "internalType": "string",
              "name": "tag",
              "type": "string"
            },
            {
              "internalType": "uint256",
              "name": "id",
              "type": "uint256"
            },
            {
              "internalType": "bool",
              "name": "isChecked",
              "type": "bool"
            },
            {
              "internalType": "bool",
              "name": "isAppropriate",
              "type": "bool"
            },
            {
              "internalType": "address payable[]",
              "name": "visitors",
              "type": "address[]"
            },
            {
              "internalType": "int256",
              "name": "websiteId",
              "type": "int256"
            }
          ],
          "internalType": "struct Advertisements.Advertisement",
          "name": "",
          "type": "tuple"
        }
      ],
      "stateMutability": "view",
      "type": "function",
      "constant": true
    },
    {
      "inputs": [],
      "name": "getAdvertisementsWithoutWebsite",
      "outputs": [
        {
          "components": [
            {
              "internalType": "address payable",
              "name": "owner",
              "type": "address"
            },
            {
              "internalType": "uint256",
              "name": "budget",
              "type": "uint256"
            },
            {
              "internalType": "string",
              "name": "ipfsHash",
              "type": "string"
            },
            {
              "internalType": "string",
              "name": "tag",
              "type": "string"
            },
            {
              "internalType": "uint256",
              "name": "id",
              "type": "uint256"
            },
            {
              "internalType": "bool",
              "name": "isChecked",
              "type": "bool"
            },
            {
              "internalType": "bool",
              "name": "isAppropriate",
              "type": "bool"
            },
            {
              "internalType": "address payable[]",
              "name": "visitors",
              "type": "address[]"
            },
            {
              "internalType": "int256",
              "name": "websiteId",
              "type": "int256"
            }
          ],
          "internalType": "struct Advertisements.Advertisement[]",
          "name": "",
          "type": "tuple[]"
        }
      ],
      "stateMutability": "view",
      "type": "function",
      "constant": true
    },
    {
      "inputs": [
        {
          "internalType": "uint256",
          "name": "adID",
          "type": "uint256"
        },
        {
          "internalType": "int256",
          "name": "websiteID",
          "type": "int256"
        }
      ],
      "name": "updateAdvertisementWebsite",
      "outputs": [],
      "stateMutability": "nonpayable",
      "type": "function"
    },
    {
      "inputs": [
        {
          "internalType": "uint256",
          "name": "adID",
          "type": "uint256"
        }
      ],
      "name": "appendVisitorToAdvertisement",
      "outputs": [],
      "stateMutability": "nonpayable",
      "type": "function"
    },
    {
      "inputs": [
        {
          "internalType": "uint256",
          "name": "adID",
          "type": "uint256"
        },
        {
          "internalType": "address payable",
          "name": "websiteOwner",
          "type": "address"
        }
      ],
      "name": "closeAdvertisementAndSplitTheRewards",
      "outputs": [],
      "stateMutability": "nonpayable",
      "type": "function"
    }
  ],
  "bytecode": "0x608060405234801561001057600080fd5b5060008081905550612492806100276000396000f3fe6080604052600436106100915760003560e01c80634a33c538116100595780634a33c5381461015857806374c1006314610195578063ab111d8b146101c0578063d3a08b24146101eb578063f67c66d61461021457610091565b806304694b281461009657806307e0bb9b146100c15780632093bb4b146100ea57806334fa81ea14610106578063419a90471461012f575b600080fd5b3480156100a257600080fd5b506100ab610251565b6040516100b89190611d44565b60405180910390f35b3480156100cd57600080fd5b506100e860048036038101906100e39190611dd2565b610648565b005b61010460048036038101906100ff9190611f47565b61069d565b005b34801561011257600080fd5b5061012d60048036038101906101289190611fd2565b6108dc565b005b34801561013b57600080fd5b506101566004803603810190610151919061202b565b61095c565b005b34801561016457600080fd5b5061017f600480360381019061017a919061206b565b6109ef565b60405161018c919061216b565b60405180910390f35b3480156101a157600080fd5b506101aa610d37565b6040516101b7919061219c565b60405180910390f35b3480156101cc57600080fd5b506101d561102f565b6040516101e29190611d44565b60405180910390f35b3480156101f757600080fd5b50610212600480360381019061020d91906121e3565b6113cf565b005b34801561022057600080fd5b5061023b60048036038101906102369190611fd2565b6115b6565b604051610248919061216b565b60405180910390f35b6060600061025d610d37565b905060008167ffffffffffffffff81111561027b5761027a611e1c565b5b6040519080825280602002602001820160405280156102b457816020015b6102a1611846565b8152602001906001900390816102995790505b5090506000805b60005481101561063e57600060016000838152602001908152602001600020604051806101200160405290816000820160009054906101000a900473ffffffffffffffffffffffffffffffffffffffff1673ffffffffffffffffffffffffffffffffffffffff1673ffffffffffffffffffffffffffffffffffffffff1681526020016001820154815260200160028201805461035690612252565b80601f016020809104026020016040519081016040528092919081815260200182805461038290612252565b80156103cf5780601f106103a4576101008083540402835291602001916103cf565b820191906000526020600020905b8154815290600101906020018083116103b257829003601f168201915b505050505081526020016003820180546103e890612252565b80601f016020809104026020016040519081016040528092919081815260200182805461041490612252565b80156104615780601f1061043657610100808354040283529160200191610461565b820191906000526020600020905b81548152906001019060200180831161044457829003601f168201915b50505050508152602001600482015481526020016005820160009054906101000a900460ff161515151581526020016005820160019054906101000a900460ff161515151581526020016006820180548060200260200160405190810160405280929190818152602001828054801561052f57602002820191906000526020600020905b8160009054906101000a900473ffffffffffffffffffffffffffffffffffffffff1673ffffffffffffffffffffffffffffffffffffffff16815260200190600101908083116104e5575b5050505050815260200160078201548152505090507fffffffffffffffffffffffffffffffffffffffffffffffffffffffffffffffff81610100015114801561057957508060c001515b1561062a57604051806101200160405280826000015173ffffffffffffffffffffffffffffffffffffffff168152602001826020015181526020018260400151815260200182606001518152602001826080015181526020018260a00151151581526020018260c00151151581526020018260e0015181526020018261010001518152508484815181106106105761060f612283565b5b60200260200101819052508280610626906122e1565b9350505b508080610636906122e1565b9150506102bb565b5081935050505090565b600060016000848152602001908152602001600020905060018160050160006101000a81548160ff021916908315150217905550818160050160016101000a81548160ff021916908315150217905550505050565b803410156106e0576040517f08c379a00000000000000000000000000000000000000000000000000000000081526004016106d790612386565b60405180910390fd5b60008067ffffffffffffffff8111156106fc576106fb611e1c565b5b60405190808252806020026020018201604052801561072a5781602001602082028036833780820191505090505b5090506040518061012001604052803373ffffffffffffffffffffffffffffffffffffffff16815260200183815260200185815260200184815260200160005481526020016000151581526020016000151581526020018281526020017fffffffffffffffffffffffffffffffffffffffffffffffffffffffffffffffff815250600160008054815260200190815260200160002060008201518160000160006101000a81548173ffffffffffffffffffffffffffffffffffffffff021916908373ffffffffffffffffffffffffffffffffffffffff16021790555060208201518160010155604082015181600201908051906020019061082c9291906118ac565b5060608201518160030190805190602001906108499291906118ac565b506080820151816004015560a08201518160050160006101000a81548160ff02191690831515021790555060c08201518160050160016101000a81548160ff02191690831515021790555060e08201518160060190805190602001906108b0929190611932565b5061010082015181600701559050506000808154809291906108d1906122e1565b919050555050505050565b600060016000838152602001908152602001600020905080600601339080600181540180825580915050600190039060005260206000200160009091909190916101000a81548173ffffffffffffffffffffffffffffffffffffffff021916908373ffffffffffffffffffffffffffffffffffffffff1602179055505050565b60005b6000548110156109c9576000600160008381526020019081526020016000209050828160070154036109b5577fffffffffffffffffffffffffffffffffffffffffffffffffffffffffffffffff81600701819055505b5080806109c1906122e1565b91505061095f565b506000600160008481526020019081526020016000209050818160070181905550505050565b6109f7611846565b6109ff611846565b60005b600054811015610d2d57600060016000838152602001908152602001600020604051806101200160405290816000820160009054906101000a900473ffffffffffffffffffffffffffffffffffffffff1673ffffffffffffffffffffffffffffffffffffffff1673ffffffffffffffffffffffffffffffffffffffff16815260200160018201548152602001600282018054610a9d90612252565b80601f0160208091040260200160405190810160405280929190818152602001828054610ac990612252565b8015610b165780601f10610aeb57610100808354040283529160200191610b16565b820191906000526020600020905b815481529060010190602001808311610af957829003601f168201915b50505050508152602001600382018054610b2f90612252565b80601f0160208091040260200160405190810160405280929190818152602001828054610b5b90612252565b8015610ba85780601f10610b7d57610100808354040283529160200191610ba8565b820191906000526020600020905b815481529060010190602001808311610b8b57829003601f168201915b50505050508152602001600482015481526020016005820160009054906101000a900460ff161515151581526020016005820160019054906101000a900460ff1615151515815260200160068201805480602002602001604051908101604052809291908181526020018280548015610c7657602002820191906000526020600020905b8160009054906101000a900473ffffffffffffffffffffffffffffffffffffffff1673ffffffffffffffffffffffffffffffffffffffff1681526020019060010190808311610c2c575b5050505050815260200160078201548152505090508481610100015103610d1957604051806101200160405280826000015173ffffffffffffffffffffffffffffffffffffffff168152602001826020015181526020018260400151815260200182606001518152602001826080015181526020018260a00151151581526020018260c00151151581526020018260e00151815260200182610100015181525092505b508080610d25906122e1565b915050610a02565b5080915050919050565b6000806000905060005b60005481101561102757600060016000838152602001908152602001600020604051806101200160405290816000820160009054906101000a900473ffffffffffffffffffffffffffffffffffffffff1673ffffffffffffffffffffffffffffffffffffffff1673ffffffffffffffffffffffffffffffffffffffff16815260200160018201548152602001600282018054610ddc90612252565b80601f0160208091040260200160405190810160405280929190818152602001828054610e0890612252565b8015610e555780601f10610e2a57610100808354040283529160200191610e55565b820191906000526020600020905b815481529060010190602001808311610e3857829003601f168201915b50505050508152602001600382018054610e6e90612252565b80601f0160208091040260200160405190810160405280929190818152602001828054610e9a90612252565b8015610ee75780601f10610ebc57610100808354040283529160200191610ee7565b820191906000526020600020905b815481529060010190602001808311610eca57829003601f168201915b50505050508152602001600482015481526020016005820160009054906101000a900460ff161515151581526020016005820160019054906101000a900460ff1615151515815260200160068201805480602002602001604051908101604052809291908181526020018280548015610fb557602002820191906000526020600020905b8160009054906101000a900473ffffffffffffffffffffffffffffffffffffffff1673ffffffffffffffffffffffffffffffffffffffff1681526020019060010190808311610f6b575b5050505050815260200160078201548152505090507fffffffffffffffffffffffffffffffffffffffffffffffffffffffffffffffff816101000151148015610fff57508060c001515b1561101357828061100f906122e1565b9350505b50808061101f906122e1565b915050610d41565b508091505090565b60606000805467ffffffffffffffff81111561104e5761104d611e1c565b5b60405190808252806020026020018201604052801561108757816020015b611074611846565b81526020019060019003908161106c5790505b50905060005b6000548110156113c757600060016000838152602001908152602001600020604051806101200160405290816000820160009054906101000a900473ffffffffffffffffffffffffffffffffffffffff1673ffffffffffffffffffffffffffffffffffffffff1673ffffffffffffffffffffffffffffffffffffffff1681526020016001820154815260200160028201805461112890612252565b80601f016020809104026020016040519081016040528092919081815260200182805461115490612252565b80156111a15780601f10611176576101008083540402835291602001916111a1565b820191906000526020600020905b81548152906001019060200180831161118457829003601f168201915b505050505081526020016003820180546111ba90612252565b80601f01602080910402602001604051908101604052809291908181526020018280546111e690612252565b80156112335780601f1061120857610100808354040283529160200191611233565b820191906000526020600020905b81548152906001019060200180831161121657829003601f168201915b50505050508152602001600482015481526020016005820160009054906101000a900460ff161515151581526020016005820160019054906101000a900460ff161515151581526020016006820180548060200260200160405190810160405280929190818152602001828054801561130157602002820191906000526020600020905b8160009054906101000a900473ffffffffffffffffffffffffffffffffffffffff1673ffffffffffffffffffffffffffffffffffffffff16815260200190600101908083116112b7575b505050505081526020016007820154815250509050604051806101200160405280826000015173ffffffffffffffffffffffffffffffffffffffff168152602001826020015181526020018260400151815260200182606001518152602001826080015181526020018260a00151151581526020018260c00151151581526020018260e0015181526020018261010001518152508383815181106113a8576113a7612283565b5b60200260200101819052505080806113bf906122e1565b91505061108d565b508091505090565b60006001600084815260200190815260200160002090506000600182600601805490506113fc91906123a6565b905060008160028460010154611412919061242b565b61141c919061242b565b9050600060048460010154611431919061242b565b9050600060048560010154611446919061242b565b905060005b85600601805490508110156114fa57600086600601828154811061147257611471612283565b5b9060005260206000200160009054906101000a900473ffffffffffffffffffffffffffffffffffffffff1690508073ffffffffffffffffffffffffffffffffffffffff166108fc869081150290604051600060405180830381858888f193505050501580156114e5573d6000803e3d6000fd5b505080806114f2906122e1565b91505061144b565b508573ffffffffffffffffffffffffffffffffffffffff166108fc839081150290604051600060405180830381858888f19350505050158015611541573d6000803e3d6000fd5b508460000160009054906101000a900473ffffffffffffffffffffffffffffffffffffffff1673ffffffffffffffffffffffffffffffffffffffff166108fc829081150290604051600060405180830381858888f193505050501580156115ac573d6000803e3d6000fd5b5050505050505050565b6115be611846565b600060016000848152602001908152602001600020604051806101200160405290816000820160009054906101000a900473ffffffffffffffffffffffffffffffffffffffff1673ffffffffffffffffffffffffffffffffffffffff1673ffffffffffffffffffffffffffffffffffffffff1681526020016001820154815260200160028201805461164f90612252565b80601f016020809104026020016040519081016040528092919081815260200182805461167b90612252565b80156116c85780601f1061169d576101008083540402835291602001916116c8565b820191906000526020600020905b8154815290600101906020018083116116ab57829003601f168201915b505050505081526020016003820180546116e190612252565b80601f016020809104026020016040519081016040528092919081815260200182805461170d90612252565b801561175a5780601f1061172f5761010080835404028352916020019161175a565b820191906000526020600020905b81548152906001019060200180831161173d57829003601f168201915b50505050508152602001600482015481526020016005820160009054906101000a900460ff161515151581526020016005820160019054906101000a900460ff161515151581526020016006820180548060200260200160405190810160405280929190818152602001828054801561182857602002820191906000526020600020905b8160009054906101000a900473ffffffffffffffffffffffffffffffffffffffff1673ffffffffffffffffffffffffffffffffffffffff16815260200190600101908083116117de575b50505050508152602001600782015481525050905080915050919050565b604051806101200160405280600073ffffffffffffffffffffffffffffffffffffffff1681526020016000815260200160608152602001606081526020016000815260200160001515815260200160001515815260200160608152602001600081525090565b8280546118b890612252565b90600052602060002090601f0160209004810192826118da5760008555611921565b82601f106118f357805160ff1916838001178555611921565b82800160010185558215611921579182015b82811115611920578251825591602001919060010190611905565b5b50905061192e91906119bc565b5090565b8280548282559060005260206000209081019282156119ab579160200282015b828111156119aa5782518260006101000a81548173ffffffffffffffffffffffffffffffffffffffff021916908373ffffffffffffffffffffffffffffffffffffffff16021790555091602001919060010190611952565b5b5090506119b891906119bc565b5090565b5b808211156119d55760008160009055506001016119bd565b5090565b600081519050919050565b600082825260208201905092915050565b6000819050602082019050919050565b600073ffffffffffffffffffffffffffffffffffffffff82169050919050565b6000611a3082611a05565b9050919050565b611a4081611a25565b82525050565b6000819050919050565b611a5981611a46565b82525050565b600081519050919050565b600082825260208201905092915050565b60005b83811015611a99578082015181840152602081019050611a7e565b83811115611aa8576000848401525b50505050565b6000601f19601f8301169050919050565b6000611aca82611a5f565b611ad48185611a6a565b9350611ae4818560208601611a7b565b611aed81611aae565b840191505092915050565b60008115159050919050565b611b0d81611af8565b82525050565b600081519050919050565b600082825260208201905092915050565b6000819050602082019050919050565b6000611b4b8383611a37565b60208301905092915050565b6000602082019050919050565b6000611b6f82611b13565b611b798185611b1e565b9350611b8483611b2f565b8060005b83811015611bb5578151611b9c8882611b3f565b9750611ba783611b57565b925050600181019050611b88565b5085935050505092915050565b6000819050919050565b611bd581611bc2565b82525050565b600061012083016000830151611bf46000860182611a37565b506020830151611c076020860182611a50565b5060408301518482036040860152611c1f8282611abf565b91505060608301518482036060860152611c398282611abf565b9150506080830151611c4e6080860182611a50565b5060a0830151611c6160a0860182611b04565b5060c0830151611c7460c0860182611b04565b5060e083015184820360e0860152611c8c8282611b64565b915050610100830151611ca3610100860182611bcc565b508091505092915050565b6000611cba8383611bdb565b905092915050565b6000602082019050919050565b6000611cda826119d9565b611ce481856119e4565b935083602082028501611cf6856119f5565b8060005b85811015611d325784840389528151611d138582611cae565b9450611d1e83611cc2565b925060208a01995050600181019050611cfa565b50829750879550505050505092915050565b60006020820190508181036000830152611d5e8184611ccf565b905092915050565b6000604051905090565b600080fd5b600080fd5b611d8381611a46565b8114611d8e57600080fd5b50565b600081359050611da081611d7a565b92915050565b611daf81611af8565b8114611dba57600080fd5b50565b600081359050611dcc81611da6565b92915050565b60008060408385031215611de957611de8611d70565b5b6000611df785828601611d91565b9250506020611e0885828601611dbd565b9150509250929050565b600080fd5b600080fd5b7f4e487b7100000000000000000000000000000000000000000000000000000000600052604160045260246000fd5b611e5482611aae565b810181811067ffffffffffffffff82111715611e7357611e72611e1c565b5b80604052505050565b6000611e86611d66565b9050611e928282611e4b565b919050565b600067ffffffffffffffff821115611eb257611eb1611e1c565b5b611ebb82611aae565b9050602081019050919050565b82818337600083830152505050565b6000611eea611ee584611e97565b611e7c565b905082815260208101848484011115611f0657611f05611e17565b5b611f11848285611ec8565b509392505050565b600082601f830112611f2e57611f2d611e12565b5b8135611f3e848260208601611ed7565b91505092915050565b600080600060608486031215611f6057611f5f611d70565b5b600084013567ffffffffffffffff811115611f7e57611f7d611d75565b5b611f8a86828701611f19565b935050602084013567ffffffffffffffff811115611fab57611faa611d75565b5b611fb786828701611f19565b9250506040611fc886828701611d91565b9150509250925092565b600060208284031215611fe857611fe7611d70565b5b6000611ff684828501611d91565b91505092915050565b61200881611bc2565b811461201357600080fd5b50565b60008135905061202581611fff565b92915050565b6000806040838503121561204257612041611d70565b5b600061205085828601611d91565b925050602061206185828601612016565b9150509250929050565b60006020828403121561208157612080611d70565b5b600061208f84828501612016565b91505092915050565b6000610120830160008301516120b16000860182611a37565b5060208301516120c46020860182611a50565b50604083015184820360408601526120dc8282611abf565b915050606083015184820360608601526120f68282611abf565b915050608083015161210b6080860182611a50565b5060a083015161211e60a0860182611b04565b5060c083015161213160c0860182611b04565b5060e083015184820360e08601526121498282611b64565b915050610100830151612160610100860182611bcc565b508091505092915050565b600060208201905081810360008301526121858184612098565b905092915050565b61219681611a46565b82525050565b60006020820190506121b1600083018461218d565b92915050565b6121c081611a25565b81146121cb57600080fd5b50565b6000813590506121dd816121b7565b92915050565b600080604083850312156121fa576121f9611d70565b5b600061220885828601611d91565b9250506020612219858286016121ce565b9150509250929050565b7f4e487b7100000000000000000000000000000000000000000000000000000000600052602260045260246000fd5b6000600282049050600182168061226a57607f821691505b60208210810361227d5761227c612223565b5b50919050565b7f4e487b7100000000000000000000000000000000000000000000000000000000600052603260045260246000fd5b7f4e487b7100000000000000000000000000000000000000000000000000000000600052601160045260246000fd5b60006122ec82611a46565b91507fffffffffffffffffffffffffffffffffffffffffffffffffffffffffffffffff820361231e5761231d6122b2565b5b600182019050919050565b600082825260208201905092915050565b7f42756467657420676f616c206e6f74206d657421000000000000000000000000600082015250565b6000612370601483612329565b915061237b8261233a565b602082019050919050565b6000602082019050818103600083015261239f81612363565b9050919050565b60006123b182611a46565b91506123bc83611a46565b9250827fffffffffffffffffffffffffffffffffffffffffffffffffffffffffffffffff038211156123f1576123f06122b2565b5b828201905092915050565b7f4e487b7100000000000000000000000000000000000000000000000000000000600052601260045260246000fd5b600061243682611a46565b915061244183611a46565b925082612451576124506123fc565b5b82820490509291505056fea2646970667358221220efcac2c0364463ccb12fc8a13e764e06c0637e588a200ed1d6761c159d396dc264736f6c634300080d0033",
  "immutableReferences": {},
  "source": "pragma solidity >=0.4.22 <0.9.0;\n\ncontract Advertisements {\n    uint256 id;\n\n    constructor() {\n      id = 0;\n    }\n\n    struct Advertisement {\n        address payable owner;\n        uint256 budget;\n        string ipfsHash;\n        string tag;\n        uint256 id;\n        bool isChecked;\n        bool isAppropriate;\n        address payable[] visitors;\n        int256 websiteId;\n    }\n    mapping(uint256 => Advertisement) idToAdvertisement;\n\n    function submitAdvertisement(string memory ipfsHash, string memory tag, uint256 budget) public payable {\n        require(msg.value >= budget, \"Budget goal not met!\");\n        address payable[] memory visitors = new address payable[](0);\n        idToAdvertisement[id] = Advertisement(payable(msg.sender), budget, ipfsHash, tag, id, false, false, visitors, -1);\n        id++;\n    }\n\n    function getAdvertisements() public view returns(Advertisement[] memory) {\n        Advertisement[] memory advertisements = new Advertisement[](id);\n        for(uint256 i = 0; i < id; i++) {\n            Advertisement memory ad = idToAdvertisement[i];\n            advertisements[i] = Advertisement(ad.owner, ad.budget, ad.ipfsHash, ad.tag, ad.id, ad.isChecked, ad.isAppropriate, ad.visitors, ad.websiteId);\n        }\n        return advertisements;\n    }\n\n    function getAdvertisementWithId(uint256 adID) public view returns(Advertisement memory){\n        Advertisement memory ad = idToAdvertisement[adID];\n        return ad;\n    }\n\n    function updateAdvertisementWithAIKnowledge(uint256 adID, bool appropriate) public {\n        Advertisement storage ad = idToAdvertisement[adID];\n        ad.isChecked = true;\n        ad.isAppropriate = appropriate;\n    }\n\n    function getCountOfAdvertisementsWithoutWebsite() public view returns(uint256) {\n        uint256 count = 0;\n        for (uint256 i = 0; i < id; i++) {\n            Advertisement memory ad = idToAdvertisement[i];\n            if(ad.websiteId == -1 && ad.isAppropriate) {\n                count++;\n            }\n        }\n        return count;\n    }\n\n    function getAdvertisementForWebsite(int256 websiteID) public view returns(Advertisement memory) {\n        Advertisement memory ad;\n        for(uint256 i = 0; i < id; i++) {\n            Advertisement memory tempAd = idToAdvertisement[i];\n            if (tempAd.websiteId == websiteID) {\n                ad = Advertisement(tempAd.owner, tempAd.budget, tempAd.ipfsHash, tempAd.tag, tempAd.id, tempAd.isChecked, tempAd.isAppropriate, tempAd.visitors, tempAd.websiteId);\n            }\n        }\n        return ad;\n    }\n\n    function getAdvertisementsWithoutWebsite() public view returns(Advertisement[] memory) {\n        uint256 countOfAdsWithoutWebsite = getCountOfAdvertisementsWithoutWebsite();\n        Advertisement[] memory advertisements = new Advertisement[](countOfAdsWithoutWebsite);\n\n        uint256 j = 0;\n        for(uint256 i = 0; i < id; i++) {\n            Advertisement memory ad = idToAdvertisement[i];\n            if (ad.websiteId == -1 && ad.isAppropriate) {\n                advertisements[j] = Advertisement(ad.owner, ad.budget, ad.ipfsHash, ad.tag, ad.id, ad.isChecked, ad.isAppropriate, ad.visitors, ad.websiteId);\n                j++;\n            }\n        }\n        return advertisements;\n    }\n\n    function updateAdvertisementWebsite(uint256 adID, int256 websiteID) public {\n        for(uint256 i = 0; i < id; i++) {\n            Advertisement storage tempAd = idToAdvertisement[i];\n            if (tempAd.websiteId == websiteID) {\n                tempAd.websiteId = -1;\n            }\n        }\n        Advertisement storage ad = idToAdvertisement[adID];\n        ad.websiteId = websiteID;\n    }\n\n    function appendVisitorToAdvertisement(uint256 adID) public {\n        Advertisement storage ad = idToAdvertisement[adID];\n        ad.visitors.push(payable(msg.sender));\n    }\n\n    function closeAdvertisementAndSplitTheRewards(uint256 adID, address payable websiteOwner) public {\n        Advertisement storage ad = idToAdvertisement[adID];\n        uint256 numberVisitors = ad.visitors.length + 1;\n        uint256 rewardPerVisitor = (ad.budget / 2) / numberVisitors;\n        uint256 rewardForWebsiteOwner = ad.budget / 4;\n        uint256 rewardForAdvertiser = ad.budget / 4;\n        for (uint256 i = 0; i < ad.visitors.length; i++) {\n            address payable visitor = ad.visitors[i];\n            visitor.transfer(rewardPerVisitor);\n        }\n        websiteOwner.transfer(rewardForWebsiteOwner);\n        ad.owner.transfer(rewardForAdvertiser);\n    }\n}",
  "sourcePath": "/Users/zane/Documents/Faks/Magistrski studij/1. letnik/2. semester/Racunalnistvo v megli za pametne storitve/Project/ad-agency/smart_contracts/contracts/Advertisements.sol",
  "compiler": {
    "name": "solc",
    "version": "0.8.13+commit.abaa5c0e.Emscripten.clang"
  },
  "schemaVersion": "3.4.13",
  "updatedAt": "2023-05-29T03:18:45.841Z",
  "networkType": "ethereum",
  "devdoc": {
    "kind": "dev",
    "methods": {},
    "version": 1
  },
  "userdoc": {
    "kind": "user",
    "methods": {},
    "version": 1
  }
}