{
  "contractName": "Advertisements",
  "abi": [
    {
      "inputs": [],
      "stateMutability": "nonpayable",
      "type": "constructor"
    },
    {
      "inputs": [
        {
          "internalType": "string",
          "name": "ipfsHash",
          "type": "string"
        },
        {
          "internalType": "string",
          "name": "tag",
          "type": "string"
        },
        {
          "internalType": "uint256",
          "name": "budget",
          "type": "uint256"
        }
      ],
      "name": "submitAdvertisement",
      "outputs": [],
      "stateMutability": "payable",
      "type": "function",
      "payable": true
    },
    {
      "inputs": [],
      "name": "getAdvertisements",
      "outputs": [
        {
          "components": [
            {
              "internalType": "address payable",
              "name": "owner",
              "type": "address"
            },
            {
              "internalType": "uint256",
              "name": "budget",
              "type": "uint256"
            },
            {
              "internalType": "string",
              "name": "ipfsHash",
              "type": "string"
            },
            {
              "internalType": "string",
              "name": "tag",
              "type": "string"
            },
            {
              "internalType": "uint256",
              "name": "id",
              "type": "uint256"
            },
            {
              "internalType": "bool",
              "name": "isChecked",
              "type": "bool"
            },
            {
              "internalType": "bool",
              "name": "isAppropriate",
              "type": "bool"
            },
            {
              "internalType": "address payable[]",
              "name": "visitors",
              "type": "address[]"
            },
            {
              "internalType": "int256",
              "name": "websiteId",
              "type": "int256"
            },
            {
              "internalType": "bool",
              "name": "isClosed",
              "type": "bool"
            }
          ],
          "internalType": "struct Advertisements.Advertisement[]",
          "name": "",
          "type": "tuple[]"
        }
      ],
      "stateMutability": "view",
      "type": "function",
      "constant": true
    },
    {
      "inputs": [
        {
          "internalType": "address",
          "name": "addr",
          "type": "address"
        }
      ],
      "name": "getCountOfAdvertisementsForAddress",
      "outputs": [
        {
          "internalType": "uint256",
          "name": "",
          "type": "uint256"
        }
      ],
      "stateMutability": "view",
      "type": "function",
      "constant": true
    },
    {
      "inputs": [
        {
          "internalType": "address",
          "name": "addr",
          "type": "address"
        }
      ],
      "name": "getAdvertisementsForAddress",
      "outputs": [
        {
          "components": [
            {
              "internalType": "address payable",
              "name": "owner",
              "type": "address"
            },
            {
              "internalType": "uint256",
              "name": "budget",
              "type": "uint256"
            },
            {
              "internalType": "string",
              "name": "ipfsHash",
              "type": "string"
            },
            {
              "internalType": "string",
              "name": "tag",
              "type": "string"
            },
            {
              "internalType": "uint256",
              "name": "id",
              "type": "uint256"
            },
            {
              "internalType": "bool",
              "name": "isChecked",
              "type": "bool"
            },
            {
              "internalType": "bool",
              "name": "isAppropriate",
              "type": "bool"
            },
            {
              "internalType": "address payable[]",
              "name": "visitors",
              "type": "address[]"
            },
            {
              "internalType": "int256",
              "name": "websiteId",
              "type": "int256"
            },
            {
              "internalType": "bool",
              "name": "isClosed",
              "type": "bool"
            }
          ],
          "internalType": "struct Advertisements.Advertisement[]",
          "name": "",
          "type": "tuple[]"
        }
      ],
      "stateMutability": "view",
      "type": "function",
      "constant": true
    },
    {
      "inputs": [
        {
          "internalType": "uint256",
          "name": "adID",
          "type": "uint256"
        }
      ],
      "name": "getAdvertisementWithId",
      "outputs": [
        {
          "components": [
            {
              "internalType": "address payable",
              "name": "owner",
              "type": "address"
            },
            {
              "internalType": "uint256",
              "name": "budget",
              "type": "uint256"
            },
            {
              "internalType": "string",
              "name": "ipfsHash",
              "type": "string"
            },
            {
              "internalType": "string",
              "name": "tag",
              "type": "string"
            },
            {
              "internalType": "uint256",
              "name": "id",
              "type": "uint256"
            },
            {
              "internalType": "bool",
              "name": "isChecked",
              "type": "bool"
            },
            {
              "internalType": "bool",
              "name": "isAppropriate",
              "type": "bool"
            },
            {
              "internalType": "address payable[]",
              "name": "visitors",
              "type": "address[]"
            },
            {
              "internalType": "int256",
              "name": "websiteId",
              "type": "int256"
            },
            {
              "internalType": "bool",
              "name": "isClosed",
              "type": "bool"
            }
          ],
          "internalType": "struct Advertisements.Advertisement",
          "name": "",
          "type": "tuple"
        }
      ],
      "stateMutability": "view",
      "type": "function",
      "constant": true
    },
    {
      "inputs": [
        {
          "internalType": "uint256",
          "name": "adID",
          "type": "uint256"
        },
        {
          "internalType": "bool",
          "name": "appropriate",
          "type": "bool"
        }
      ],
      "name": "updateAdvertisementWithAIKnowledge",
      "outputs": [],
      "stateMutability": "nonpayable",
      "type": "function"
    },
    {
      "inputs": [],
      "name": "getCountOfAdvertisementsWithoutWebsite",
      "outputs": [
        {
          "internalType": "uint256",
          "name": "",
          "type": "uint256"
        }
      ],
      "stateMutability": "view",
      "type": "function",
      "constant": true
    },
    {
      "inputs": [
        {
          "internalType": "int256",
          "name": "websiteID",
          "type": "int256"
        }
      ],
      "name": "getAdvertisementForWebsite",
      "outputs": [
        {
          "components": [
            {
              "internalType": "address payable",
              "name": "owner",
              "type": "address"
            },
            {
              "internalType": "uint256",
              "name": "budget",
              "type": "uint256"
            },
            {
              "internalType": "string",
              "name": "ipfsHash",
              "type": "string"
            },
            {
              "internalType": "string",
              "name": "tag",
              "type": "string"
            },
            {
              "internalType": "uint256",
              "name": "id",
              "type": "uint256"
            },
            {
              "internalType": "bool",
              "name": "isChecked",
              "type": "bool"
            },
            {
              "internalType": "bool",
              "name": "isAppropriate",
              "type": "bool"
            },
            {
              "internalType": "address payable[]",
              "name": "visitors",
              "type": "address[]"
            },
            {
              "internalType": "int256",
              "name": "websiteId",
              "type": "int256"
            },
            {
              "internalType": "bool",
              "name": "isClosed",
              "type": "bool"
            }
          ],
          "internalType": "struct Advertisements.Advertisement",
          "name": "",
          "type": "tuple"
        }
      ],
      "stateMutability": "view",
      "type": "function",
      "constant": true
    },
    {
      "inputs": [],
      "name": "getAdvertisementsWithoutWebsite",
      "outputs": [
        {
          "components": [
            {
              "internalType": "address payable",
              "name": "owner",
              "type": "address"
            },
            {
              "internalType": "uint256",
              "name": "budget",
              "type": "uint256"
            },
            {
              "internalType": "string",
              "name": "ipfsHash",
              "type": "string"
            },
            {
              "internalType": "string",
              "name": "tag",
              "type": "string"
            },
            {
              "internalType": "uint256",
              "name": "id",
              "type": "uint256"
            },
            {
              "internalType": "bool",
              "name": "isChecked",
              "type": "bool"
            },
            {
              "internalType": "bool",
              "name": "isAppropriate",
              "type": "bool"
            },
            {
              "internalType": "address payable[]",
              "name": "visitors",
              "type": "address[]"
            },
            {
              "internalType": "int256",
              "name": "websiteId",
              "type": "int256"
            },
            {
              "internalType": "bool",
              "name": "isClosed",
              "type": "bool"
            }
          ],
          "internalType": "struct Advertisements.Advertisement[]",
          "name": "",
          "type": "tuple[]"
        }
      ],
      "stateMutability": "view",
      "type": "function",
      "constant": true
    },
    {
      "inputs": [
        {
          "internalType": "address",
          "name": "addr",
          "type": "address"
        }
      ],
      "name": "getNumberOfVisitsForAddress",
      "outputs": [
        {
          "internalType": "uint256",
          "name": "",
          "type": "uint256"
        }
      ],
      "stateMutability": "view",
      "type": "function",
      "constant": true
    },
    {
      "inputs": [
        {
          "internalType": "uint256",
          "name": "adID",
          "type": "uint256"
        },
        {
          "internalType": "int256",
          "name": "websiteID",
          "type": "int256"
        }
      ],
      "name": "updateAdvertisementWebsite",
      "outputs": [],
      "stateMutability": "nonpayable",
      "type": "function"
    },
    {
      "inputs": [
        {
          "internalType": "uint256",
          "name": "adID",
          "type": "uint256"
        }
      ],
      "name": "appendVisitorToAdvertisement",
      "outputs": [],
      "stateMutability": "nonpayable",
      "type": "function"
    },
    {
      "inputs": [
        {
          "internalType": "uint256",
          "name": "adID",
          "type": "uint256"
        },
        {
          "internalType": "address payable",
          "name": "websiteOwner",
          "type": "address"
        }
      ],
      "name": "closeAdvertisementAndSplitTheRewards",
      "outputs": [],
      "stateMutability": "nonpayable",
      "type": "function"
    },
    {
      "inputs": [
        {
          "internalType": "uint256",
          "name": "adID",
          "type": "uint256"
        }
      ],
      "name": "closeAdvertisementAndSplitTheRewardsWithoutWebsite",
      "outputs": [],
      "stateMutability": "nonpayable",
      "type": "function"
    }
  ],
  "bytecode": "0x608060405234801561001057600080fd5b506000808190555061360a806100276000396000f3fe6080604052600436106100dd5760003560e01c8063806009e91161007f578063d3a08b2411610059578063d3a08b24146102b1578063dac4fd1a146102da578063f67c66d614610303578063f6ebeb7314610340576100dd565b8063806009e91461020c578063ab111d8b14610249578063c97b0bbb14610274576100dd565b806334fa81ea116100bb57806334fa81ea14610152578063419a90471461017b5780634a33c538146101a457806374c10063146101e1576100dd565b806304694b28146100e257806307e0bb9b1461010d5780632093bb4b14610136575b600080fd5b3480156100ee57600080fd5b506100f761037d565b6040516101049190612dd0565b60405180910390f35b34801561011957600080fd5b50610134600480360381019061012f9190612e5e565b6107ab565b005b610150600480360381019061014b9190612fd3565b610800565b005b34801561015e57600080fd5b506101796004803603810190610174919061305e565b610a69565b005b34801561018757600080fd5b506101a2600480360381019061019d91906130b7565b610ae9565b005b3480156101b057600080fd5b506101cb60048036038101906101c691906130f7565b610c0e565b6040516101d8919061320c565b60405180910390f35b3480156101ed57600080fd5b506101f6610f7e565b604051610203919061323d565b60405180910390f35b34801561021857600080fd5b50610233600480360381019061022e9190613296565b6112a0565b604051610240919061323d565b60405180910390f35b34801561025557600080fd5b5061025e6115f0565b60405161026b9190612dd0565b60405180910390f35b34801561028057600080fd5b5061029b60048036038101906102969190613296565b6119b8565b6040516102a8919061323d565b60405180910390f35b3480156102bd57600080fd5b506102d860048036038101906102d391906132ef565b611cca565b005b3480156102e657600080fd5b5061030160048036038101906102fc919061305e565b611f89565b005b34801561030f57600080fd5b5061032a6004803603810190610325919061305e565b6121ea565b604051610337919061320c565b60405180910390f35b34801561034c57600080fd5b5061036760048036038101906103629190613296565b612495565b6040516103749190612dd0565b60405180910390f35b60606000610389610f7e565b905060008167ffffffffffffffff8111156103a7576103a6612ea8565b5b6040519080825280602002602001820160405280156103e057816020015b6103cd6128b4565b8152602001906001900390816103c55790505b5090506000805b6000548110156107a157600060016000838152602001908152602001600020604051806101400160405290816000820160009054906101000a900473ffffffffffffffffffffffffffffffffffffffff1673ffffffffffffffffffffffffffffffffffffffff1673ffffffffffffffffffffffffffffffffffffffff168152602001600182015481526020016002820180546104829061335e565b80601f01602080910402602001604051908101604052809291908181526020018280546104ae9061335e565b80156104fb5780601f106104d0576101008083540402835291602001916104fb565b820191906000526020600020905b8154815290600101906020018083116104de57829003601f168201915b505050505081526020016003820180546105149061335e565b80601f01602080910402602001604051908101604052809291908181526020018280546105409061335e565b801561058d5780601f106105625761010080835404028352916020019161058d565b820191906000526020600020905b81548152906001019060200180831161057057829003601f168201915b50505050508152602001600482015481526020016005820160009054906101000a900460ff161515151581526020016005820160019054906101000a900460ff161515151581526020016006820180548060200260200160405190810160405280929190818152602001828054801561065b57602002820191906000526020600020905b8160009054906101000a900473ffffffffffffffffffffffffffffffffffffffff1673ffffffffffffffffffffffffffffffffffffffff1681526020019060010190808311610611575b50505050508152602001600782015481526020016008820160009054906101000a900460ff16151515158152505090507fffffffffffffffffffffffffffffffffffffffffffffffffffffffffffffffff8161010001511480156106c057508060c001515b80156106cf5750806101200151155b1561078d57604051806101400160405280826000015173ffffffffffffffffffffffffffffffffffffffff168152602001826020015181526020018260400151815260200182606001518152602001826080015181526020018260a00151151581526020018260c00151151581526020018260e001518152602001826101000151815260200182610120015115158152508484815181106107735761077261338f565b5b60200260200101819052508280610789906133ed565b9350505b508080610799906133ed565b9150506103e7565b5081935050505090565b600060016000848152602001908152602001600020905060018160050160006101000a81548160ff021916908315150217905550818160050160016101000a81548160ff021916908315150217905550505050565b80341015610843576040517f08c379a000000000000000000000000000000000000000000000000000000000815260040161083a90613492565b60405180910390fd5b60008067ffffffffffffffff81111561085f5761085e612ea8565b5b60405190808252806020026020018201604052801561088d5781602001602082028036833780820191505090505b5090506040518061014001604052803373ffffffffffffffffffffffffffffffffffffffff16815260200183815260200185815260200184815260200160005481526020016000151581526020016000151581526020018281526020017fffffffffffffffffffffffffffffffffffffffffffffffffffffffffffffffff815260200160001515815250600160008054815260200190815260200160002060008201518160000160006101000a81548173ffffffffffffffffffffffffffffffffffffffff021916908373ffffffffffffffffffffffffffffffffffffffff160217905550602082015181600101556040820151816002019080519060200190610998929190612923565b5060608201518160030190805190602001906109b5929190612923565b506080820151816004015560a08201518160050160006101000a81548160ff02191690831515021790555060c08201518160050160016101000a81548160ff02191690831515021790555060e0820151816006019080519060200190610a1c9291906129a9565b5061010082015181600701556101208201518160080160006101000a81548160ff021916908315150217905550905050600080815480929190610a5e906133ed565b919050555050505050565b600060016000838152602001908152602001600020905080600601339080600181540180825580915050600190039060005260206000200160009091909190916101000a81548173ffffffffffffffffffffffffffffffffffffffff021916908373ffffffffffffffffffffffffffffffffffffffff1602179055505050565b60005b600054811015610b5657600060016000838152602001908152602001600020905082816007015403610b42577fffffffffffffffffffffffffffffffffffffffffffffffffffffffffffffffff81600701819055505b508080610b4e906133ed565b915050610aec565b5060006001600084815260200190815260200160002090508060000160009054906101000a900473ffffffffffffffffffffffffffffffffffffffff1673ffffffffffffffffffffffffffffffffffffffff163373ffffffffffffffffffffffffffffffffffffffff1614610c00576040517f08c379a0000000000000000000000000000000000000000000000000000000008152600401610bf7906134fe565b60405180910390fd5b818160070181905550505050565b610c166128b4565b610c1e6128b4565b60005b600054811015610f7457600060016000838152602001908152602001600020604051806101400160405290816000820160009054906101000a900473ffffffffffffffffffffffffffffffffffffffff1673ffffffffffffffffffffffffffffffffffffffff1673ffffffffffffffffffffffffffffffffffffffff16815260200160018201548152602001600282018054610cbc9061335e565b80601f0160208091040260200160405190810160405280929190818152602001828054610ce89061335e565b8015610d355780601f10610d0a57610100808354040283529160200191610d35565b820191906000526020600020905b815481529060010190602001808311610d1857829003601f168201915b50505050508152602001600382018054610d4e9061335e565b80601f0160208091040260200160405190810160405280929190818152602001828054610d7a9061335e565b8015610dc75780601f10610d9c57610100808354040283529160200191610dc7565b820191906000526020600020905b815481529060010190602001808311610daa57829003601f168201915b50505050508152602001600482015481526020016005820160009054906101000a900460ff161515151581526020016005820160019054906101000a900460ff1615151515815260200160068201805480602002602001604051908101604052809291908181526020018280548015610e9557602002820191906000526020600020905b8160009054906101000a900473ffffffffffffffffffffffffffffffffffffffff1673ffffffffffffffffffffffffffffffffffffffff1681526020019060010190808311610e4b575b50505050508152602001600782015481526020016008820160009054906101000a900460ff16151515158152505090508481610100015103610f6057604051806101400160405280826000015173ffffffffffffffffffffffffffffffffffffffff168152602001826020015181526020018260400151815260200182606001518152602001826080015181526020018260a00151151581526020018260c00151151581526020018260e0015181526020018261010001518152602001826101200151151581525092505b508080610f6c906133ed565b915050610c21565b5080915050919050565b6000806000905060005b60005481101561129857600060016000838152602001908152602001600020604051806101400160405290816000820160009054906101000a900473ffffffffffffffffffffffffffffffffffffffff1673ffffffffffffffffffffffffffffffffffffffff1673ffffffffffffffffffffffffffffffffffffffff168152602001600182015481526020016002820180546110239061335e565b80601f016020809104026020016040519081016040528092919081815260200182805461104f9061335e565b801561109c5780601f106110715761010080835404028352916020019161109c565b820191906000526020600020905b81548152906001019060200180831161107f57829003601f168201915b505050505081526020016003820180546110b59061335e565b80601f01602080910402602001604051908101604052809291908181526020018280546110e19061335e565b801561112e5780601f106111035761010080835404028352916020019161112e565b820191906000526020600020905b81548152906001019060200180831161111157829003601f168201915b50505050508152602001600482015481526020016005820160009054906101000a900460ff161515151581526020016005820160019054906101000a900460ff16151515158152602001600682018054806020026020016040519081016040528092919081815260200182805480156111fc57602002820191906000526020600020905b8160009054906101000a900473ffffffffffffffffffffffffffffffffffffffff1673ffffffffffffffffffffffffffffffffffffffff16815260200190600101908083116111b2575b50505050508152602001600782015481526020016008820160009054906101000a900460ff16151515158152505090507fffffffffffffffffffffffffffffffffffffffffffffffffffffffffffffffff81610100015114801561126157508060c001515b80156112705750806101200151155b15611284578280611280906133ed565b9350505b508080611290906133ed565b915050610f88565b508091505090565b6000806000905060005b6000548110156115e657600060016000838152602001908152602001600020604051806101400160405290816000820160009054906101000a900473ffffffffffffffffffffffffffffffffffffffff1673ffffffffffffffffffffffffffffffffffffffff1673ffffffffffffffffffffffffffffffffffffffff168152602001600182015481526020016002820180546113459061335e565b80601f01602080910402602001604051908101604052809291908181526020018280546113719061335e565b80156113be5780601f10611393576101008083540402835291602001916113be565b820191906000526020600020905b8154815290600101906020018083116113a157829003601f168201915b505050505081526020016003820180546113d79061335e565b80601f01602080910402602001604051908101604052809291908181526020018280546114039061335e565b80156114505780601f1061142557610100808354040283529160200191611450565b820191906000526020600020905b81548152906001019060200180831161143357829003601f168201915b50505050508152602001600482015481526020016005820160009054906101000a900460ff161515151581526020016005820160019054906101000a900460ff161515151581526020016006820180548060200260200160405190810160405280929190818152602001828054801561151e57602002820191906000526020600020905b8160009054906101000a900473ffffffffffffffffffffffffffffffffffffffff1673ffffffffffffffffffffffffffffffffffffffff16815260200190600101908083116114d4575b50505050508152602001600782015481526020016008820160009054906101000a900460ff161515151581525050905060005b8160e00151518110156115d1578573ffffffffffffffffffffffffffffffffffffffff168260e00151828151811061158c5761158b61338f565b5b602002602001015173ffffffffffffffffffffffffffffffffffffffff16036115be5783806115ba906133ed565b9450505b80806115c9906133ed565b915050611551565b505080806115de906133ed565b9150506112aa565b5080915050919050565b60606000805467ffffffffffffffff81111561160f5761160e612ea8565b5b60405190808252806020026020018201604052801561164857816020015b6116356128b4565b81526020019060019003908161162d5790505b50905060005b6000548110156119b057600060016000838152602001908152602001600020604051806101400160405290816000820160009054906101000a900473ffffffffffffffffffffffffffffffffffffffff1673ffffffffffffffffffffffffffffffffffffffff1673ffffffffffffffffffffffffffffffffffffffff168152602001600182015481526020016002820180546116e99061335e565b80601f01602080910402602001604051908101604052809291908181526020018280546117159061335e565b80156117625780601f1061173757610100808354040283529160200191611762565b820191906000526020600020905b81548152906001019060200180831161174557829003601f168201915b5050505050815260200160038201805461177b9061335e565b80601f01602080910402602001604051908101604052809291908181526020018280546117a79061335e565b80156117f45780601f106117c9576101008083540402835291602001916117f4565b820191906000526020600020905b8154815290600101906020018083116117d757829003601f168201915b50505050508152602001600482015481526020016005820160009054906101000a900460ff161515151581526020016005820160019054906101000a900460ff16151515158152602001600682018054806020026020016040519081016040528092919081815260200182805480156118c257602002820191906000526020600020905b8160009054906101000a900473ffffffffffffffffffffffffffffffffffffffff1673ffffffffffffffffffffffffffffffffffffffff1681526020019060010190808311611878575b50505050508152602001600782015481526020016008820160009054906101000a900460ff1615151515815250509050604051806101400160405280826000015173ffffffffffffffffffffffffffffffffffffffff168152602001826020015181526020018260400151815260200182606001518152602001826080015181526020018260a00151151581526020018260c00151151581526020018260e001518152602001826101000151815260200182610120015115158152508383815181106119915761199061338f565b5b60200260200101819052505080806119a8906133ed565b91505061164e565b508091505090565b6000806000905060005b600054811015611cc057600060016000838152602001908152602001600020604051806101400160405290816000820160009054906101000a900473ffffffffffffffffffffffffffffffffffffffff1673ffffffffffffffffffffffffffffffffffffffff1673ffffffffffffffffffffffffffffffffffffffff16815260200160018201548152602001600282018054611a5d9061335e565b80601f0160208091040260200160405190810160405280929190818152602001828054611a899061335e565b8015611ad65780601f10611aab57610100808354040283529160200191611ad6565b820191906000526020600020905b815481529060010190602001808311611ab957829003601f168201915b50505050508152602001600382018054611aef9061335e565b80601f0160208091040260200160405190810160405280929190818152602001828054611b1b9061335e565b8015611b685780601f10611b3d57610100808354040283529160200191611b68565b820191906000526020600020905b815481529060010190602001808311611b4b57829003601f168201915b50505050508152602001600482015481526020016005820160009054906101000a900460ff161515151581526020016005820160019054906101000a900460ff1615151515815260200160068201805480602002602001604051908101604052809291908181526020018280548015611c3657602002820191906000526020600020905b8160009054906101000a900473ffffffffffffffffffffffffffffffffffffffff1673ffffffffffffffffffffffffffffffffffffffff1681526020019060010190808311611bec575b50505050508152602001600782015481526020016008820160009054906101000a900460ff16151515158152505090508473ffffffffffffffffffffffffffffffffffffffff16816000015173ffffffffffffffffffffffffffffffffffffffff1603611cac578280611ca8906133ed565b9350505b508080611cb8906133ed565b9150506119c2565b5080915050919050565b60006001600084815260200190815260200160002090508060000160009054906101000a900473ffffffffffffffffffffffffffffffffffffffff1673ffffffffffffffffffffffffffffffffffffffff163373ffffffffffffffffffffffffffffffffffffffff1614611d73576040517f08c379a0000000000000000000000000000000000000000000000000000000008152600401611d6a906134fe565b60405180910390fd5b60018160080160006101000a81548160ff0219169083151502179055507fffffffffffffffffffffffffffffffffffffffffffffffffffffffffffffffff8160070181905550600060018260060180549050611dcf919061351e565b905060008160028460010154611de591906135a3565b611def91906135a3565b9050600060048460010154611e0491906135a3565b9050600060048560010154611e1991906135a3565b905060005b8560060180549050811015611ecd576000866006018281548110611e4557611e4461338f565b5b9060005260206000200160009054906101000a900473ffffffffffffffffffffffffffffffffffffffff1690508073ffffffffffffffffffffffffffffffffffffffff166108fc869081150290604051600060405180830381858888f19350505050158015611eb8573d6000803e3d6000fd5b50508080611ec5906133ed565b915050611e1e565b508573ffffffffffffffffffffffffffffffffffffffff166108fc839081150290604051600060405180830381858888f19350505050158015611f14573d6000803e3d6000fd5b508460000160009054906101000a900473ffffffffffffffffffffffffffffffffffffffff1673ffffffffffffffffffffffffffffffffffffffff166108fc829081150290604051600060405180830381858888f19350505050158015611f7f573d6000803e3d6000fd5b5050505050505050565b60006001600083815260200190815260200160002090508060000160009054906101000a900473ffffffffffffffffffffffffffffffffffffffff1673ffffffffffffffffffffffffffffffffffffffff163373ffffffffffffffffffffffffffffffffffffffff1614612032576040517f08c379a0000000000000000000000000000000000000000000000000000000008152600401612029906134fe565b60405180910390fd5b60018160080160006101000a81548160ff0219169083151502179055507fffffffffffffffffffffffffffffffffffffffffffffffffffffffffffffffff816007018190555060006001826006018054905061208e919061351e565b9050600081600284600101546120a491906135a3565b6120ae91906135a3565b90506000600284600101546120c391906135a3565b905060005b84600601805490508110156121775760008560060182815481106120ef576120ee61338f565b5b9060005260206000200160009054906101000a900473ffffffffffffffffffffffffffffffffffffffff1690508073ffffffffffffffffffffffffffffffffffffffff166108fc859081150290604051600060405180830381858888f19350505050158015612162573d6000803e3d6000fd5b5050808061216f906133ed565b9150506120c8565b508360000160009054906101000a900473ffffffffffffffffffffffffffffffffffffffff1673ffffffffffffffffffffffffffffffffffffffff166108fc829081150290604051600060405180830381858888f193505050501580156121e2573d6000803e3d6000fd5b505050505050565b6121f26128b4565b600060016000848152602001908152602001600020604051806101400160405290816000820160009054906101000a900473ffffffffffffffffffffffffffffffffffffffff1673ffffffffffffffffffffffffffffffffffffffff1673ffffffffffffffffffffffffffffffffffffffff168152602001600182015481526020016002820180546122839061335e565b80601f01602080910402602001604051908101604052809291908181526020018280546122af9061335e565b80156122fc5780601f106122d1576101008083540402835291602001916122fc565b820191906000526020600020905b8154815290600101906020018083116122df57829003601f168201915b505050505081526020016003820180546123159061335e565b80601f01602080910402602001604051908101604052809291908181526020018280546123419061335e565b801561238e5780601f106123635761010080835404028352916020019161238e565b820191906000526020600020905b81548152906001019060200180831161237157829003601f168201915b50505050508152602001600482015481526020016005820160009054906101000a900460ff161515151581526020016005820160019054906101000a900460ff161515151581526020016006820180548060200260200160405190810160405280929190818152602001828054801561245c57602002820191906000526020600020905b8160009054906101000a900473ffffffffffffffffffffffffffffffffffffffff1673ffffffffffffffffffffffffffffffffffffffff1681526020019060010190808311612412575b50505050508152602001600782015481526020016008820160009054906101000a900460ff161515151581525050905080915050919050565b606060006124a2836119b8565b905060008167ffffffffffffffff8111156124c0576124bf612ea8565b5b6040519080825280602002602001820160405280156124f957816020015b6124e66128b4565b8152602001906001900390816124de5790505b5090506000805b6000548110156128a857600060016000838152602001908152602001600020604051806101400160405290816000820160009054906101000a900473ffffffffffffffffffffffffffffffffffffffff1673ffffffffffffffffffffffffffffffffffffffff1673ffffffffffffffffffffffffffffffffffffffff1681526020016001820154815260200160028201805461259b9061335e565b80601f01602080910402602001604051908101604052809291908181526020018280546125c79061335e565b80156126145780601f106125e957610100808354040283529160200191612614565b820191906000526020600020905b8154815290600101906020018083116125f757829003601f168201915b5050505050815260200160038201805461262d9061335e565b80601f01602080910402602001604051908101604052809291908181526020018280546126599061335e565b80156126a65780601f1061267b576101008083540402835291602001916126a6565b820191906000526020600020905b81548152906001019060200180831161268957829003601f168201915b50505050508152602001600482015481526020016005820160009054906101000a900460ff161515151581526020016005820160019054906101000a900460ff161515151581526020016006820180548060200260200160405190810160405280929190818152602001828054801561277457602002820191906000526020600020905b8160009054906101000a900473ffffffffffffffffffffffffffffffffffffffff1673ffffffffffffffffffffffffffffffffffffffff168152602001906001019080831161272a575b50505050508152602001600782015481526020016008820160009054906101000a900460ff16151515158152505090508673ffffffffffffffffffffffffffffffffffffffff16816000015173ffffffffffffffffffffffffffffffffffffffff160361289457604051806101400160405280826000015173ffffffffffffffffffffffffffffffffffffffff168152602001826020015181526020018260400151815260200182606001518152602001826080015181526020018260a00151151581526020018260c00151151581526020018260e0015181526020018261010001518152602001826101200151151581525084848151811061287a5761287961338f565b5b60200260200101819052508280612890906133ed565b9350505b5080806128a0906133ed565b915050612500565b50819350505050919050565b604051806101400160405280600073ffffffffffffffffffffffffffffffffffffffff1681526020016000815260200160608152602001606081526020016000815260200160001515815260200160001515815260200160608152602001600081526020016000151581525090565b82805461292f9061335e565b90600052602060002090601f0160209004810192826129515760008555612998565b82601f1061296a57805160ff1916838001178555612998565b82800160010185558215612998579182015b8281111561299757825182559160200191906001019061297c565b5b5090506129a59190612a33565b5090565b828054828255906000526020600020908101928215612a22579160200282015b82811115612a215782518260006101000a81548173ffffffffffffffffffffffffffffffffffffffff021916908373ffffffffffffffffffffffffffffffffffffffff160217905550916020019190600101906129c9565b5b509050612a2f9190612a33565b5090565b5b80821115612a4c576000816000905550600101612a34565b5090565b600081519050919050565b600082825260208201905092915050565b6000819050602082019050919050565b600073ffffffffffffffffffffffffffffffffffffffff82169050919050565b6000612aa782612a7c565b9050919050565b612ab781612a9c565b82525050565b6000819050919050565b612ad081612abd565b82525050565b600081519050919050565b600082825260208201905092915050565b60005b83811015612b10578082015181840152602081019050612af5565b83811115612b1f576000848401525b50505050565b6000601f19601f8301169050919050565b6000612b4182612ad6565b612b4b8185612ae1565b9350612b5b818560208601612af2565b612b6481612b25565b840191505092915050565b60008115159050919050565b612b8481612b6f565b82525050565b600081519050919050565b600082825260208201905092915050565b6000819050602082019050919050565b6000612bc28383612aae565b60208301905092915050565b6000602082019050919050565b6000612be682612b8a565b612bf08185612b95565b9350612bfb83612ba6565b8060005b83811015612c2c578151612c138882612bb6565b9750612c1e83612bce565b925050600181019050612bff565b5085935050505092915050565b6000819050919050565b612c4c81612c39565b82525050565b600061014083016000830151612c6b6000860182612aae565b506020830151612c7e6020860182612ac7565b5060408301518482036040860152612c968282612b36565b91505060608301518482036060860152612cb08282612b36565b9150506080830151612cc56080860182612ac7565b5060a0830151612cd860a0860182612b7b565b5060c0830151612ceb60c0860182612b7b565b5060e083015184820360e0860152612d038282612bdb565b915050610100830151612d1a610100860182612c43565b50610120830151612d2f610120860182612b7b565b508091505092915050565b6000612d468383612c52565b905092915050565b6000602082019050919050565b6000612d6682612a50565b612d708185612a5b565b935083602082028501612d8285612a6c565b8060005b85811015612dbe5784840389528151612d9f8582612d3a565b9450612daa83612d4e565b925060208a01995050600181019050612d86565b50829750879550505050505092915050565b60006020820190508181036000830152612dea8184612d5b565b905092915050565b6000604051905090565b600080fd5b600080fd5b612e0f81612abd565b8114612e1a57600080fd5b50565b600081359050612e2c81612e06565b92915050565b612e3b81612b6f565b8114612e4657600080fd5b50565b600081359050612e5881612e32565b92915050565b60008060408385031215612e7557612e74612dfc565b5b6000612e8385828601612e1d565b9250506020612e9485828601612e49565b9150509250929050565b600080fd5b600080fd5b7f4e487b7100000000000000000000000000000000000000000000000000000000600052604160045260246000fd5b612ee082612b25565b810181811067ffffffffffffffff82111715612eff57612efe612ea8565b5b80604052505050565b6000612f12612df2565b9050612f1e8282612ed7565b919050565b600067ffffffffffffffff821115612f3e57612f3d612ea8565b5b612f4782612b25565b9050602081019050919050565b82818337600083830152505050565b6000612f76612f7184612f23565b612f08565b905082815260208101848484011115612f9257612f91612ea3565b5b612f9d848285612f54565b509392505050565b600082601f830112612fba57612fb9612e9e565b5b8135612fca848260208601612f63565b91505092915050565b600080600060608486031215612fec57612feb612dfc565b5b600084013567ffffffffffffffff81111561300a57613009612e01565b5b61301686828701612fa5565b935050602084013567ffffffffffffffff81111561303757613036612e01565b5b61304386828701612fa5565b925050604061305486828701612e1d565b9150509250925092565b60006020828403121561307457613073612dfc565b5b600061308284828501612e1d565b91505092915050565b61309481612c39565b811461309f57600080fd5b50565b6000813590506130b18161308b565b92915050565b600080604083850312156130ce576130cd612dfc565b5b60006130dc85828601612e1d565b92505060206130ed858286016130a2565b9150509250929050565b60006020828403121561310d5761310c612dfc565b5b600061311b848285016130a2565b91505092915050565b60006101408301600083015161313d6000860182612aae565b5060208301516131506020860182612ac7565b50604083015184820360408601526131688282612b36565b915050606083015184820360608601526131828282612b36565b91505060808301516131976080860182612ac7565b5060a08301516131aa60a0860182612b7b565b5060c08301516131bd60c0860182612b7b565b5060e083015184820360e08601526131d58282612bdb565b9150506101008301516131ec610100860182612c43565b50610120830151613201610120860182612b7b565b508091505092915050565b600060208201905081810360008301526132268184613124565b905092915050565b61323781612abd565b82525050565b6000602082019050613252600083018461322e565b92915050565b600061326382612a7c565b9050919050565b61327381613258565b811461327e57600080fd5b50565b6000813590506132908161326a565b92915050565b6000602082840312156132ac576132ab612dfc565b5b60006132ba84828501613281565b91505092915050565b6132cc81612a9c565b81146132d757600080fd5b50565b6000813590506132e9816132c3565b92915050565b6000806040838503121561330657613305612dfc565b5b600061331485828601612e1d565b9250506020613325858286016132da565b9150509250929050565b7f4e487b7100000000000000000000000000000000000000000000000000000000600052602260045260246000fd5b6000600282049050600182168061337657607f821691505b6020821081036133895761338861332f565b5b50919050565b7f4e487b7100000000000000000000000000000000000000000000000000000000600052603260045260246000fd5b7f4e487b7100000000000000000000000000000000000000000000000000000000600052601160045260246000fd5b60006133f882612abd565b91507fffffffffffffffffffffffffffffffffffffffffffffffffffffffffffffffff820361342a576134296133be565b5b600182019050919050565b600082825260208201905092915050565b7f42756467657420676f616c206e6f74206d657421000000000000000000000000600082015250565b600061347c601483613435565b915061348782613446565b602082019050919050565b600060208201905081810360008301526134ab8161346f565b9050919050565b7f596f7520617265206e6f7420746865206164206f776e65722100000000000000600082015250565b60006134e8601983613435565b91506134f3826134b2565b602082019050919050565b60006020820190508181036000830152613517816134db565b9050919050565b600061352982612abd565b915061353483612abd565b9250827fffffffffffffffffffffffffffffffffffffffffffffffffffffffffffffffff03821115613569576135686133be565b5b828201905092915050565b7f4e487b7100000000000000000000000000000000000000000000000000000000600052601260045260246000fd5b60006135ae82612abd565b91506135b983612abd565b9250826135c9576135c8613574565b5b82820490509291505056fea2646970667358221220140cea5c959ba3ff1aa45d342b6341d7b351ab323fe112dd855a82ffab8b139964736f6c634300080d0033",
  "immutableReferences": {},
  "source": "pragma solidity >=0.4.22 <0.9.0;\n\ncontract Advertisements {\n    uint256 id;\n\n    constructor() {\n      id = 0;\n    }\n\n    struct Advertisement {\n        address payable owner;\n        uint256 budget;\n        string ipfsHash;\n        string tag;\n        uint256 id;\n        bool isChecked;\n        bool isAppropriate;\n        address payable[] visitors;\n        int256 websiteId;\n        bool isClosed;\n    }\n    mapping(uint256 => Advertisement) idToAdvertisement;\n\n    function submitAdvertisement(string memory ipfsHash, string memory tag, uint256 budget) public payable {\n        require(msg.value >= budget, \"Budget goal not met!\");\n        address payable[] memory visitors = new address payable[](0);\n        idToAdvertisement[id] = Advertisement(payable(msg.sender), budget, ipfsHash, tag, id, false, false, visitors, -1, false);\n        id++;\n    }\n\n    function getAdvertisements() public view returns(Advertisement[] memory) {\n        Advertisement[] memory advertisements = new Advertisement[](id);\n        for(uint256 i = 0; i < id; i++) {\n            Advertisement memory ad = idToAdvertisement[i];\n            advertisements[i] = Advertisement(ad.owner, ad.budget, ad.ipfsHash, ad.tag, ad.id, ad.isChecked, ad.isAppropriate, ad.visitors, ad.websiteId, ad.isClosed);\n        }\n        return advertisements;\n    }\n\n    function getCountOfAdvertisementsForAddress(address addr) public view returns(uint256) {\n        uint256 count = 0;\n        for (uint256 i = 0; i < id; i++) {\n            Advertisement memory ad = idToAdvertisement[i];\n            if(ad.owner == addr) {\n                count++;\n            }\n        }\n        return count;\n    }\n\n    function getAdvertisementsForAddress(address addr) public view returns(Advertisement[] memory) {\n        uint256 countOfAdvertisementsForAddress = getCountOfAdvertisementsForAddress(addr);\n        Advertisement[] memory advertisements = new Advertisement[](countOfAdvertisementsForAddress);\n\n        uint256 j = 0;\n        for(uint256 i = 0; i < id; i++) {\n            Advertisement memory ad = idToAdvertisement[i];\n            if (ad.owner == addr) {\n                advertisements[j] = Advertisement(ad.owner, ad.budget, ad.ipfsHash, ad.tag, ad.id, ad.isChecked, ad.isAppropriate, ad.visitors, ad.websiteId, ad.isClosed);\n                j++;\n            }\n        }\n        return advertisements;\n    }\n\n    function getAdvertisementWithId(uint256 adID) public view returns(Advertisement memory){\n        Advertisement memory ad = idToAdvertisement[adID];\n        return ad;\n    }\n\n    function updateAdvertisementWithAIKnowledge(uint256 adID, bool appropriate) public {\n        Advertisement storage ad = idToAdvertisement[adID];\n        ad.isChecked = true;\n        ad.isAppropriate = appropriate;\n    }\n\n    function getCountOfAdvertisementsWithoutWebsite() public view returns(uint256) {\n        uint256 count = 0;\n        for (uint256 i = 0; i < id; i++) {\n            Advertisement memory ad = idToAdvertisement[i];\n            if(ad.websiteId == -1 && ad.isAppropriate && !ad.isClosed) {\n                count++;\n            }\n        }\n        return count;\n    }\n\n    function getAdvertisementForWebsite(int256 websiteID) public view returns(Advertisement memory) {\n        Advertisement memory ad;\n        for(uint256 i = 0; i < id; i++) {\n            Advertisement memory tempAd = idToAdvertisement[i];\n            if (tempAd.websiteId == websiteID) {\n                ad = Advertisement(tempAd.owner, tempAd.budget, tempAd.ipfsHash, tempAd.tag, tempAd.id, tempAd.isChecked, tempAd.isAppropriate, tempAd.visitors, tempAd.websiteId, tempAd.isClosed);\n            }\n        }\n        return ad;\n    }\n\n    function getAdvertisementsWithoutWebsite() public view returns(Advertisement[] memory) {\n        uint256 countOfAdsWithoutWebsite = getCountOfAdvertisementsWithoutWebsite();\n        Advertisement[] memory advertisements = new Advertisement[](countOfAdsWithoutWebsite);\n\n        uint256 j = 0;\n        for(uint256 i = 0; i < id; i++) {\n            Advertisement memory ad = idToAdvertisement[i];\n            if (ad.websiteId == -1 && ad.isAppropriate && !ad.isClosed) {\n                advertisements[j] = Advertisement(ad.owner, ad.budget, ad.ipfsHash, ad.tag, ad.id, ad.isChecked, ad.isAppropriate, ad.visitors, ad.websiteId, ad.isClosed);\n                j++;\n            }\n        }\n        return advertisements;\n    }\n\n    function getNumberOfVisitsForAddress(address addr) public view returns(uint256) {\n        uint256 count = 0;\n        for(uint256 i = 0; i < id; i++) {\n            Advertisement memory tempAd = idToAdvertisement[i];\n            for (uint256 j = 0; j < tempAd.visitors.length; j++) {\n                if (tempAd.visitors[j] == addr) {\n                    count++;\n                }\n            }\n        }\n        return count;\n    }\n\n    function updateAdvertisementWebsite(uint256 adID, int256 websiteID) public {\n        for(uint256 i = 0; i < id; i++) {\n            Advertisement storage tempAd = idToAdvertisement[i];\n            if (tempAd.websiteId == websiteID) {\n                tempAd.websiteId = -1;\n            }\n        }\n        Advertisement storage ad = idToAdvertisement[adID];\n        require(msg.sender == ad.owner, \"You are not the ad owner!\");\n        ad.websiteId = websiteID;\n    }\n\n    function appendVisitorToAdvertisement(uint256 adID) public {\n        Advertisement storage ad = idToAdvertisement[adID];\n        ad.visitors.push(payable(msg.sender));\n    }\n\n    function closeAdvertisementAndSplitTheRewards(uint256 adID, address payable websiteOwner) public {\n        Advertisement storage ad = idToAdvertisement[adID];\n        require(msg.sender == ad.owner, \"You are not the ad owner!\");\n        ad.isClosed = true;\n        ad.websiteId = -1;\n        uint256 numberVisitors = ad.visitors.length + 1;\n        uint256 rewardPerVisitor = (ad.budget / 2) / numberVisitors;\n        uint256 rewardForWebsiteOwner = ad.budget / 4;\n        uint256 rewardForAdvertiser = ad.budget / 4;\n        for (uint256 i = 0; i < ad.visitors.length; i++) {\n            address payable visitor = ad.visitors[i];\n            visitor.transfer(rewardPerVisitor);\n        }\n        websiteOwner.transfer(rewardForWebsiteOwner);\n        ad.owner.transfer(rewardForAdvertiser);\n    }\n\n    function closeAdvertisementAndSplitTheRewardsWithoutWebsite(uint256 adID) public {\n        Advertisement storage ad = idToAdvertisement[adID];\n        require(msg.sender == ad.owner, \"You are not the ad owner!\");\n        ad.isClosed = true;\n        ad.websiteId = -1;\n        uint256 numberVisitors = ad.visitors.length + 1;\n        uint256 rewardPerVisitor = (ad.budget / 2) / numberVisitors;\n        uint256 rewardForAdvertiser = ad.budget / 2;\n        for (uint256 i = 0; i < ad.visitors.length; i++) {\n            address payable visitor = ad.visitors[i];\n            visitor.transfer(rewardPerVisitor);\n        }\n        ad.owner.transfer(rewardForAdvertiser);\n    }\n}",
  "sourcePath": "/Users/zane/Documents/Faks/Magistrski studij/1. letnik/2. semester/Racunalnistvo v megli za pametne storitve/Project/ad-agency/smart_contracts/contracts/Advertisements.sol",
  "compiler": {
    "name": "solc",
    "version": "0.8.13+commit.abaa5c0e.Emscripten.clang"
  },
  "schemaVersion": "3.4.13",
  "updatedAt": "2023-05-29T14:09:46.042Z",
  "networkType": "ethereum",
  "devdoc": {
    "kind": "dev",
    "methods": {},
    "version": 1
  },
  "userdoc": {
    "kind": "user",
    "methods": {},
    "version": 1
  }
}