{
  "contractName": "Websites",
  "abi": [
    {
      "inputs": [],
      "stateMutability": "nonpayable",
      "type": "constructor"
    },
    {
      "inputs": [
        {
          "internalType": "string",
          "name": "url",
          "type": "string"
        }
      ],
      "name": "submitWebsite",
      "outputs": [],
      "stateMutability": "nonpayable",
      "type": "function"
    },
    {
      "inputs": [],
      "name": "getWebsites",
      "outputs": [
        {
          "components": [
            {
              "internalType": "address",
              "name": "owner",
              "type": "address"
            },
            {
              "internalType": "string",
              "name": "url",
              "type": "string"
            },
            {
              "internalType": "uint256",
              "name": "id",
              "type": "uint256"
            }
          ],
          "internalType": "struct Websites.Website[]",
          "name": "",
          "type": "tuple[]"
        }
      ],
      "stateMutability": "view",
      "type": "function",
      "constant": true
    },
    {
      "inputs": [
        {
          "internalType": "uint256",
          "name": "websiteID",
          "type": "uint256"
        }
      ],
      "name": "getWebsiteWithId",
      "outputs": [
        {
          "components": [
            {
              "internalType": "address",
              "name": "owner",
              "type": "address"
            },
            {
              "internalType": "string",
              "name": "url",
              "type": "string"
            },
            {
              "internalType": "uint256",
              "name": "id",
              "type": "uint256"
            }
          ],
          "internalType": "struct Websites.Website",
          "name": "",
          "type": "tuple"
        }
      ],
      "stateMutability": "view",
      "type": "function",
      "constant": true
    }
  ],
  "bytecode": "0x608060405234801561001057600080fd5b5060008081905550610b34806100276000396000f3fe608060405234801561001057600080fd5b50600436106100415760003560e01c80634e7fd139146100465780635c12c0bf146100765780639539a38f14610094575b600080fd5b610060600480360381019061005b91906105be565b6100b0565b60405161006d9190610724565b60405180910390f35b61007e6101d5565b60405161008b9190610858565b60405180910390f35b6100ae60048036038101906100a991906109af565b6103c8565b005b6100b861049a565b6000600160008481526020019081526020016000206040518060600160405290816000820160009054906101000a900473ffffffffffffffffffffffffffffffffffffffff1673ffffffffffffffffffffffffffffffffffffffff1673ffffffffffffffffffffffffffffffffffffffff16815260200160018201805461013e90610a27565b80601f016020809104026020016040519081016040528092919081815260200182805461016a90610a27565b80156101b75780601f1061018c576101008083540402835291602001916101b7565b820191906000526020600020905b81548152906001019060200180831161019a57829003601f168201915b50505050508152602001600282015481525050905080915050919050565b60606000805467ffffffffffffffff8111156101f4576101f3610884565b5b60405190808252806020026020018201604052801561022d57816020015b61021a61049a565b8152602001906001900390816102125790505b50905060005b6000548110156103c0576000600160008381526020019081526020016000206040518060600160405290816000820160009054906101000a900473ffffffffffffffffffffffffffffffffffffffff1673ffffffffffffffffffffffffffffffffffffffff1673ffffffffffffffffffffffffffffffffffffffff1681526020016001820180546102c390610a27565b80601f01602080910402602001604051908101604052809291908181526020018280546102ef90610a27565b801561033c5780601f106103115761010080835404028352916020019161033c565b820191906000526020600020905b81548152906001019060200180831161031f57829003601f168201915b5050505050815260200160028201548152505090506040518060600160405280826000015173ffffffffffffffffffffffffffffffffffffffff1681526020018260200151815260200182604001518152508383815181106103a1576103a0610a58565b5b60200260200101819052505080806103b890610ab6565b915050610233565b508091505090565b60405180606001604052803373ffffffffffffffffffffffffffffffffffffffff168152602001828152602001600054815250600160008054815260200190815260200160002060008201518160000160006101000a81548173ffffffffffffffffffffffffffffffffffffffff021916908373ffffffffffffffffffffffffffffffffffffffff16021790555060208201518160010190805190602001906104729291906104d1565b506040820151816002015590505060008081548092919061049290610ab6565b919050555050565b6040518060600160405280600073ffffffffffffffffffffffffffffffffffffffff16815260200160608152602001600081525090565b8280546104dd90610a27565b90600052602060002090601f0160209004810192826104ff5760008555610546565b82601f1061051857805160ff1916838001178555610546565b82800160010185558215610546579182015b8281111561054557825182559160200191906001019061052a565b5b5090506105539190610557565b5090565b5b80821115610570576000816000905550600101610558565b5090565b6000604051905090565b600080fd5b600080fd5b6000819050919050565b61059b81610588565b81146105a657600080fd5b50565b6000813590506105b881610592565b92915050565b6000602082840312156105d4576105d361057e565b5b60006105e2848285016105a9565b91505092915050565b600073ffffffffffffffffffffffffffffffffffffffff82169050919050565b6000610616826105eb565b9050919050565b6106268161060b565b82525050565b600081519050919050565b600082825260208201905092915050565b60005b8381101561066657808201518184015260208101905061064b565b83811115610675576000848401525b50505050565b6000601f19601f8301169050919050565b60006106978261062c565b6106a18185610637565b93506106b1818560208601610648565b6106ba8161067b565b840191505092915050565b6106ce81610588565b82525050565b60006060830160008301516106ec600086018261061d565b5060208301518482036020860152610704828261068c565b915050604083015161071960408601826106c5565b508091505092915050565b6000602082019050818103600083015261073e81846106d4565b905092915050565b600081519050919050565b600082825260208201905092915050565b6000819050602082019050919050565b600060608301600083015161078a600086018261061d565b50602083015184820360208601526107a2828261068c565b91505060408301516107b760408601826106c5565b508091505092915050565b60006107ce8383610772565b905092915050565b6000602082019050919050565b60006107ee82610746565b6107f88185610751565b93508360208202850161080a85610762565b8060005b85811015610846578484038952815161082785826107c2565b9450610832836107d6565b925060208a0199505060018101905061080e565b50829750879550505050505092915050565b6000602082019050818103600083015261087281846107e3565b905092915050565b600080fd5b600080fd5b7f4e487b7100000000000000000000000000000000000000000000000000000000600052604160045260246000fd5b6108bc8261067b565b810181811067ffffffffffffffff821117156108db576108da610884565b5b80604052505050565b60006108ee610574565b90506108fa82826108b3565b919050565b600067ffffffffffffffff82111561091a57610919610884565b5b6109238261067b565b9050602081019050919050565b82818337600083830152505050565b600061095261094d846108ff565b6108e4565b90508281526020810184848401111561096e5761096d61087f565b5b610979848285610930565b509392505050565b600082601f8301126109965761099561087a565b5b81356109a684826020860161093f565b91505092915050565b6000602082840312156109c5576109c461057e565b5b600082013567ffffffffffffffff8111156109e3576109e2610583565b5b6109ef84828501610981565b91505092915050565b7f4e487b7100000000000000000000000000000000000000000000000000000000600052602260045260246000fd5b60006002820490506001821680610a3f57607f821691505b602082108103610a5257610a516109f8565b5b50919050565b7f4e487b7100000000000000000000000000000000000000000000000000000000600052603260045260246000fd5b7f4e487b7100000000000000000000000000000000000000000000000000000000600052601160045260246000fd5b6000610ac182610588565b91507fffffffffffffffffffffffffffffffffffffffffffffffffffffffffffffffff8203610af357610af2610a87565b5b60018201905091905056fea26469706673582212202d96475721012956354befe360b7d02bcaed04fa96f5fb6a41fdc8d496bd77cf64736f6c634300080d0033",
  "immutableReferences": {},
  "source": "pragma solidity >=0.4.22 <0.9.0;\n\ncontract Websites {\n    uint256 id;\n\n    constructor() {\n        id = 0;\n    }\n\n    struct Website {\n        address owner;\n        string url;\n        uint256 id;\n    }\n\n    mapping(uint256 => Website) idToWebsite;\n\n    function submitWebsite(string memory url) public {\n        idToWebsite[id] = Website(msg.sender, url, id);\n        id++;\n    }\n\n    function getWebsites() public view returns(Website[] memory) {\n        Website[] memory websites = new Website[](id);\n        for(uint256 i = 0; i < id; i++) {\n            Website memory website = idToWebsite[i];\n            websites[i] = Website(website.owner, website.url, website.id);\n        }\n        return websites;\n    }\n\n    function getWebsiteWithId(uint256 websiteID) public view returns(Website memory) {\n        Website memory website = idToWebsite[websiteID];\n        return website;\n    }\n}",
  "sourcePath": "/Users/zane/Documents/Faks/Magistrski studij/1. letnik/2. semester/Racunalnistvo v megli za pametne storitve/Project/ad-agency/smart_contracts/contracts/Websites.sol",
  "compiler": {
    "name": "solc",
    "version": "0.8.13+commit.abaa5c0e.Emscripten.clang"
  },
  "schemaVersion": "3.4.13",
  "updatedAt": "2023-05-28T19:43:44.721Z",
  "networkType": "ethereum",
  "devdoc": {
    "kind": "dev",
    "methods": {},
    "version": 1
  },
  "userdoc": {
    "kind": "user",
    "methods": {},
    "version": 1
  }
}