{
  "contractName": "Websites",
  "abi": [
    {
      "inputs": [],
      "stateMutability": "nonpayable",
      "type": "constructor"
    },
    {
      "inputs": [
        {
          "internalType": "string",
          "name": "url",
          "type": "string"
        }
      ],
      "name": "submitWebsite",
      "outputs": [],
      "stateMutability": "nonpayable",
      "type": "function"
    },
    {
      "inputs": [],
      "name": "getWebsites",
      "outputs": [
        {
          "components": [
            {
              "internalType": "address",
              "name": "owner",
              "type": "address"
            },
            {
              "internalType": "string",
              "name": "url",
              "type": "string"
            },
            {
              "internalType": "uint256",
              "name": "id",
              "type": "uint256"
            }
          ],
          "internalType": "struct Websites.Website[]",
          "name": "",
          "type": "tuple[]"
        }
      ],
      "stateMutability": "view",
      "type": "function",
      "constant": true
    },
    {
      "inputs": [
        {
          "internalType": "uint256",
          "name": "websiteID",
          "type": "uint256"
        }
      ],
      "name": "getWebsiteWithId",
      "outputs": [
        {
          "components": [
            {
              "internalType": "address",
              "name": "owner",
              "type": "address"
            },
            {
              "internalType": "string",
              "name": "url",
              "type": "string"
            },
            {
              "internalType": "uint256",
              "name": "id",
              "type": "uint256"
            }
          ],
          "internalType": "struct Websites.Website",
          "name": "",
          "type": "tuple"
        }
      ],
      "stateMutability": "view",
      "type": "function",
      "constant": true
    },
    {
      "inputs": [
        {
          "internalType": "string",
          "name": "a",
          "type": "string"
        },
        {
          "internalType": "string",
          "name": "b",
          "type": "string"
        }
      ],
      "name": "compareStrings",
      "outputs": [
        {
          "internalType": "bool",
          "name": "",
          "type": "bool"
        }
      ],
      "stateMutability": "view",
      "type": "function",
      "constant": true
    },
    {
      "inputs": [
        {
          "internalType": "string",
          "name": "url",
          "type": "string"
        }
      ],
      "name": "getWebsiteIdFromURL",
      "outputs": [
        {
          "internalType": "int256",
          "name": "",
          "type": "int256"
        }
      ],
      "stateMutability": "view",
      "type": "function",
      "constant": true
    }
  ],
  "bytecode": "0x608060405234801561001057600080fd5b5060008081905550610ebd806100276000396000f3fe608060405234801561001057600080fd5b50600436106100575760003560e01c80634e7fd1391461005c5780635c12c0bf1461008c5780639539a38f146100aa578063b435438b146100c6578063bed34bba146100f6575b600080fd5b61007660048036038101906100719190610812565b610126565b6040516100839190610978565b60405180910390f35b61009461024b565b6040516100a19190610aac565b60405180910390f35b6100c460048036038101906100bf9190610c03565b61043e565b005b6100e060048036038101906100db9190610c03565b610510565b6040516100ed9190610c65565b60405180910390f35b610110600480360381019061010b9190610c80565b610695565b60405161011d9190610d13565b60405180910390f35b61012e6106ee565b6000600160008481526020019081526020016000206040518060600160405290816000820160009054906101000a900473ffffffffffffffffffffffffffffffffffffffff1673ffffffffffffffffffffffffffffffffffffffff1673ffffffffffffffffffffffffffffffffffffffff1681526020016001820180546101b490610d5d565b80601f01602080910402602001604051908101604052809291908181526020018280546101e090610d5d565b801561022d5780601f106102025761010080835404028352916020019161022d565b820191906000526020600020905b81548152906001019060200180831161021057829003601f168201915b50505050508152602001600282015481525050905080915050919050565b60606000805467ffffffffffffffff81111561026a57610269610ad8565b5b6040519080825280602002602001820160405280156102a357816020015b6102906106ee565b8152602001906001900390816102885790505b50905060005b600054811015610436576000600160008381526020019081526020016000206040518060600160405290816000820160009054906101000a900473ffffffffffffffffffffffffffffffffffffffff1673ffffffffffffffffffffffffffffffffffffffff1673ffffffffffffffffffffffffffffffffffffffff16815260200160018201805461033990610d5d565b80601f016020809104026020016040519081016040528092919081815260200182805461036590610d5d565b80156103b25780601f10610387576101008083540402835291602001916103b2565b820191906000526020600020905b81548152906001019060200180831161039557829003601f168201915b5050505050815260200160028201548152505090506040518060600160405280826000015173ffffffffffffffffffffffffffffffffffffffff16815260200182602001518152602001826040015181525083838151811061041757610416610d8e565b5b602002602001018190525050808061042e90610dec565b9150506102a9565b508091505090565b60405180606001604052803373ffffffffffffffffffffffffffffffffffffffff168152602001828152602001600054815250600160008054815260200190815260200160002060008201518160000160006101000a81548173ffffffffffffffffffffffffffffffffffffffff021916908373ffffffffffffffffffffffffffffffffffffffff16021790555060208201518160010190805190602001906104e8929190610725565b506040820151816002015590505060008081548092919061050890610dec565b919050555050565b600080600090505b60005481101561066b576000600160008381526020019081526020016000206040518060600160405290816000820160009054906101000a900473ffffffffffffffffffffffffffffffffffffffff1673ffffffffffffffffffffffffffffffffffffffff1673ffffffffffffffffffffffffffffffffffffffff1681526020016001820180546105a890610d5d565b80601f01602080910402602001604051908101604052809291908181526020018280546105d490610d5d565b80156106215780601f106105f657610100808354040283529160200191610621565b820191906000526020600020905b81548152906001019060200180831161060457829003601f168201915b505050505081526020016002820154815250509050610644816020015185610695565b1561065757806040015192505050610690565b50808061066390610dec565b915050610518565b507fffffffffffffffffffffffffffffffffffffffffffffffffffffffffffffffff90505b919050565b6000816040516020016106a89190610e70565b60405160208183030381529060405280519060200120836040516020016106cf9190610e70565b6040516020818303038152906040528051906020012014905092915050565b6040518060600160405280600073ffffffffffffffffffffffffffffffffffffffff16815260200160608152602001600081525090565b82805461073190610d5d565b90600052602060002090601f016020900481019282610753576000855561079a565b82601f1061076c57805160ff191683800117855561079a565b8280016001018555821561079a579182015b8281111561079957825182559160200191906001019061077e565b5b5090506107a791906107ab565b5090565b5b808211156107c45760008160009055506001016107ac565b5090565b6000604051905090565b600080fd5b600080fd5b6000819050919050565b6107ef816107dc565b81146107fa57600080fd5b50565b60008135905061080c816107e6565b92915050565b600060208284031215610828576108276107d2565b5b6000610836848285016107fd565b91505092915050565b600073ffffffffffffffffffffffffffffffffffffffff82169050919050565b600061086a8261083f565b9050919050565b61087a8161085f565b82525050565b600081519050919050565b600082825260208201905092915050565b60005b838110156108ba57808201518184015260208101905061089f565b838111156108c9576000848401525b50505050565b6000601f19601f8301169050919050565b60006108eb82610880565b6108f5818561088b565b935061090581856020860161089c565b61090e816108cf565b840191505092915050565b610922816107dc565b82525050565b60006060830160008301516109406000860182610871565b506020830151848203602086015261095882826108e0565b915050604083015161096d6040860182610919565b508091505092915050565b600060208201905081810360008301526109928184610928565b905092915050565b600081519050919050565b600082825260208201905092915050565b6000819050602082019050919050565b60006060830160008301516109de6000860182610871565b50602083015184820360208601526109f682826108e0565b9150506040830151610a0b6040860182610919565b508091505092915050565b6000610a2283836109c6565b905092915050565b6000602082019050919050565b6000610a428261099a565b610a4c81856109a5565b935083602082028501610a5e856109b6565b8060005b85811015610a9a5784840389528151610a7b8582610a16565b9450610a8683610a2a565b925060208a01995050600181019050610a62565b50829750879550505050505092915050565b60006020820190508181036000830152610ac68184610a37565b905092915050565b600080fd5b600080fd5b7f4e487b7100000000000000000000000000000000000000000000000000000000600052604160045260246000fd5b610b10826108cf565b810181811067ffffffffffffffff82111715610b2f57610b2e610ad8565b5b80604052505050565b6000610b426107c8565b9050610b4e8282610b07565b919050565b600067ffffffffffffffff821115610b6e57610b6d610ad8565b5b610b77826108cf565b9050602081019050919050565b82818337600083830152505050565b6000610ba6610ba184610b53565b610b38565b905082815260208101848484011115610bc257610bc1610ad3565b5b610bcd848285610b84565b509392505050565b600082601f830112610bea57610be9610ace565b5b8135610bfa848260208601610b93565b91505092915050565b600060208284031215610c1957610c186107d2565b5b600082013567ffffffffffffffff811115610c3757610c366107d7565b5b610c4384828501610bd5565b91505092915050565b6000819050919050565b610c5f81610c4c565b82525050565b6000602082019050610c7a6000830184610c56565b92915050565b60008060408385031215610c9757610c966107d2565b5b600083013567ffffffffffffffff811115610cb557610cb46107d7565b5b610cc185828601610bd5565b925050602083013567ffffffffffffffff811115610ce257610ce16107d7565b5b610cee85828601610bd5565b9150509250929050565b60008115159050919050565b610d0d81610cf8565b82525050565b6000602082019050610d286000830184610d04565b92915050565b7f4e487b7100000000000000000000000000000000000000000000000000000000600052602260045260246000fd5b60006002820490506001821680610d7557607f821691505b602082108103610d8857610d87610d2e565b5b50919050565b7f4e487b7100000000000000000000000000000000000000000000000000000000600052603260045260246000fd5b7f4e487b7100000000000000000000000000000000000000000000000000000000600052601160045260246000fd5b6000610df7826107dc565b91507fffffffffffffffffffffffffffffffffffffffffffffffffffffffffffffffff8203610e2957610e28610dbd565b5b600182019050919050565b600081905092915050565b6000610e4a82610880565b610e548185610e34565b9350610e6481856020860161089c565b80840191505092915050565b6000610e7c8284610e3f565b91508190509291505056fea2646970667358221220daf0e8817bca63cfd1ba7fc064ded0198bf62781fb36e95c5de9c9ca84fdbfd064736f6c634300080d0033",
  "immutableReferences": {},
  "source": "pragma solidity >=0.4.22 <0.9.0;\n\ncontract Websites {\n    uint256 id;\n\n    constructor() {\n        id = 0;\n    }\n\n    struct Website {\n        address owner;\n        string url;\n        uint256 id;\n    }\n\n    mapping(uint256 => Website) idToWebsite;\n\n    function submitWebsite(string memory url) public {\n        idToWebsite[id] = Website(msg.sender, url, id);\n        id++;\n    }\n\n    function getWebsites() public view returns(Website[] memory) {\n        Website[] memory websites = new Website[](id);\n        for(uint256 i = 0; i < id; i++) {\n            Website memory website = idToWebsite[i];\n            websites[i] = Website(website.owner, website.url, website.id);\n        }\n        return websites;\n    }\n\n    function getWebsiteWithId(uint256 websiteID) public view returns(Website memory) {\n        Website memory website = idToWebsite[websiteID];\n        return website;\n    }\n\n    function compareStrings(string memory a, string memory b) public view returns (bool) {\n        return (keccak256(abi.encodePacked((a))) == keccak256(abi.encodePacked((b))));\n}\n\n    function getWebsiteIdFromURL(string memory url) public view returns(int256) {\n        for(uint256 i = 0; i < id; i++) {\n            Website memory website = idToWebsite[i];\n            if (compareStrings(website.url, url)) {\n                return int256(website.id);\n            }\n        }\n        return -1;\n    }\n}",
  "sourcePath": "/Users/zane/Documents/Faks/Magistrski studij/1. letnik/2. semester/Racunalnistvo v megli za pametne storitve/Project/ad-agency/smart_contracts/contracts/Websites.sol",
  "compiler": {
    "name": "solc",
    "version": "0.8.13+commit.abaa5c0e.Emscripten.clang"
  },
  "schemaVersion": "3.4.13",
  "updatedAt": "2023-05-29T03:18:45.872Z",
  "networkType": "ethereum",
  "devdoc": {
    "kind": "dev",
    "methods": {},
    "version": 1
  },
  "userdoc": {
    "kind": "user",
    "methods": {},
    "version": 1
  }
}