{
  "contractName": "Websites",
  "abi": [
    {
      "inputs": [],
      "stateMutability": "nonpayable",
      "type": "constructor"
    },
    {
      "inputs": [
        {
          "internalType": "string",
          "name": "url",
          "type": "string"
        }
      ],
      "name": "submitWebsite",
      "outputs": [],
      "stateMutability": "nonpayable",
      "type": "function"
    },
    {
      "inputs": [],
      "name": "getWebsites",
      "outputs": [
        {
          "components": [
            {
              "internalType": "address",
              "name": "owner",
              "type": "address"
            },
            {
              "internalType": "string",
              "name": "url",
              "type": "string"
            },
            {
              "internalType": "uint256",
              "name": "id",
              "type": "uint256"
            }
          ],
          "internalType": "struct Websites.Website[]",
          "name": "",
          "type": "tuple[]"
        }
      ],
      "stateMutability": "view",
      "type": "function",
      "constant": true
    },
    {
      "inputs": [
        {
          "internalType": "uint256",
          "name": "websiteID",
          "type": "uint256"
        }
      ],
      "name": "getWebsiteWithId",
      "outputs": [
        {
          "components": [
            {
              "internalType": "address",
              "name": "owner",
              "type": "address"
            },
            {
              "internalType": "string",
              "name": "url",
              "type": "string"
            },
            {
              "internalType": "uint256",
              "name": "id",
              "type": "uint256"
            }
          ],
          "internalType": "struct Websites.Website",
          "name": "",
          "type": "tuple"
        }
      ],
      "stateMutability": "view",
      "type": "function",
      "constant": true
    },
    {
      "inputs": [
        {
          "internalType": "address",
          "name": "addr",
          "type": "address"
        }
      ],
      "name": "getCountOfWebsitesForAddress",
      "outputs": [
        {
          "internalType": "uint256",
          "name": "",
          "type": "uint256"
        }
      ],
      "stateMutability": "view",
      "type": "function",
      "constant": true
    },
    {
      "inputs": [
        {
          "internalType": "address",
          "name": "addr",
          "type": "address"
        }
      ],
      "name": "getWebsitesForAddress",
      "outputs": [
        {
          "components": [
            {
              "internalType": "address",
              "name": "owner",
              "type": "address"
            },
            {
              "internalType": "string",
              "name": "url",
              "type": "string"
            },
            {
              "internalType": "uint256",
              "name": "id",
              "type": "uint256"
            }
          ],
          "internalType": "struct Websites.Website[]",
          "name": "",
          "type": "tuple[]"
        }
      ],
      "stateMutability": "view",
      "type": "function",
      "constant": true
    },
    {
      "inputs": [
        {
          "internalType": "string",
          "name": "a",
          "type": "string"
        },
        {
          "internalType": "string",
          "name": "b",
          "type": "string"
        }
      ],
      "name": "compareStrings",
      "outputs": [
        {
          "internalType": "bool",
          "name": "",
          "type": "bool"
        }
      ],
      "stateMutability": "view",
      "type": "function",
      "constant": true
    },
    {
      "inputs": [
        {
          "internalType": "string",
          "name": "url",
          "type": "string"
        }
      ],
      "name": "getWebsiteIdFromURL",
      "outputs": [
        {
          "internalType": "int256",
          "name": "",
          "type": "int256"
        }
      ],
      "stateMutability": "view",
      "type": "function",
      "constant": true
    }
  ],
  "bytecode": "0x608060405234801561001057600080fd5b506000808190555061139c806100276000396000f3fe608060405234801561001057600080fd5b506004361061007d5760003560e01c80635c12c0bf1161005b5780635c12c0bf146101125780639539a38f14610130578063b435438b1461014c578063bed34bba1461017c5761007d565b80630e31f736146100825780633b039d68146100b25780634e7fd139146100e2575b600080fd5b61009c60048036038101906100979190610c96565b6101ac565b6040516100a99190610e96565b60405180910390f35b6100cc60048036038101906100c79190610c96565b6103f6565b6040516100d99190610ec7565b60405180910390f35b6100fc60048036038101906100f79190610f0e565b610582565b6040516101099190610f8b565b60405180910390f35b61011a6106a7565b6040516101279190610e96565b60405180910390f35b61014a600480360381019061014591906110e2565b61089a565b005b610166600480360381019061016191906110e2565b61096c565b6040516101739190611144565b60405180910390f35b6101966004803603810190610191919061115f565b610af1565b6040516101a391906111f2565b60405180910390f35b606060006101b9836103f6565b905060008167ffffffffffffffff8111156101d7576101d6610fb7565b5b60405190808252806020026020018201604052801561021057816020015b6101fd610b4a565b8152602001906001900390816101f55790505b5090506000805b6000548110156103ea576000600160008381526020019081526020016000206040518060600160405290816000820160009054906101000a900473ffffffffffffffffffffffffffffffffffffffff1673ffffffffffffffffffffffffffffffffffffffff1673ffffffffffffffffffffffffffffffffffffffff1681526020016001820180546102a79061123c565b80601f01602080910402602001604051908101604052809291908181526020018280546102d39061123c565b80156103205780601f106102f557610100808354040283529160200191610320565b820191906000526020600020905b81548152906001019060200180831161030357829003601f168201915b5050505050815260200160028201548152505090508673ffffffffffffffffffffffffffffffffffffffff16816000015173ffffffffffffffffffffffffffffffffffffffff16036103d6576040518060600160405280826000015173ffffffffffffffffffffffffffffffffffffffff1681526020018260200151815260200182604001518152508484815181106103bc576103bb61126d565b5b602002602001018190525082806103d2906112cb565b9350505b5080806103e2906112cb565b915050610217565b50819350505050919050565b6000806000905060005b600054811015610578576000600160008381526020019081526020016000206040518060600160405290816000820160009054906101000a900473ffffffffffffffffffffffffffffffffffffffff1673ffffffffffffffffffffffffffffffffffffffff1673ffffffffffffffffffffffffffffffffffffffff1681526020016001820180546104909061123c565b80601f01602080910402602001604051908101604052809291908181526020018280546104bc9061123c565b80156105095780601f106104de57610100808354040283529160200191610509565b820191906000526020600020905b8154815290600101906020018083116104ec57829003601f168201915b5050505050815260200160028201548152505090508473ffffffffffffffffffffffffffffffffffffffff16816000015173ffffffffffffffffffffffffffffffffffffffff1603610564578280610560906112cb565b9350505b508080610570906112cb565b915050610400565b5080915050919050565b61058a610b4a565b6000600160008481526020019081526020016000206040518060600160405290816000820160009054906101000a900473ffffffffffffffffffffffffffffffffffffffff1673ffffffffffffffffffffffffffffffffffffffff1673ffffffffffffffffffffffffffffffffffffffff1681526020016001820180546106109061123c565b80601f016020809104026020016040519081016040528092919081815260200182805461063c9061123c565b80156106895780601f1061065e57610100808354040283529160200191610689565b820191906000526020600020905b81548152906001019060200180831161066c57829003601f168201915b50505050508152602001600282015481525050905080915050919050565b60606000805467ffffffffffffffff8111156106c6576106c5610fb7565b5b6040519080825280602002602001820160405280156106ff57816020015b6106ec610b4a565b8152602001906001900390816106e45790505b50905060005b600054811015610892576000600160008381526020019081526020016000206040518060600160405290816000820160009054906101000a900473ffffffffffffffffffffffffffffffffffffffff1673ffffffffffffffffffffffffffffffffffffffff1673ffffffffffffffffffffffffffffffffffffffff1681526020016001820180546107959061123c565b80601f01602080910402602001604051908101604052809291908181526020018280546107c19061123c565b801561080e5780601f106107e35761010080835404028352916020019161080e565b820191906000526020600020905b8154815290600101906020018083116107f157829003601f168201915b5050505050815260200160028201548152505090506040518060600160405280826000015173ffffffffffffffffffffffffffffffffffffffff1681526020018260200151815260200182604001518152508383815181106108735761087261126d565b5b602002602001018190525050808061088a906112cb565b915050610705565b508091505090565b60405180606001604052803373ffffffffffffffffffffffffffffffffffffffff168152602001828152602001600054815250600160008054815260200190815260200160002060008201518160000160006101000a81548173ffffffffffffffffffffffffffffffffffffffff021916908373ffffffffffffffffffffffffffffffffffffffff1602179055506020820151816001019080519060200190610944929190610b81565b5060408201518160020155905050600080815480929190610964906112cb565b919050555050565b600080600090505b600054811015610ac7576000600160008381526020019081526020016000206040518060600160405290816000820160009054906101000a900473ffffffffffffffffffffffffffffffffffffffff1673ffffffffffffffffffffffffffffffffffffffff1673ffffffffffffffffffffffffffffffffffffffff168152602001600182018054610a049061123c565b80601f0160208091040260200160405190810160405280929190818152602001828054610a309061123c565b8015610a7d5780601f10610a5257610100808354040283529160200191610a7d565b820191906000526020600020905b815481529060010190602001808311610a6057829003601f168201915b505050505081526020016002820154815250509050610aa0816020015185610af1565b15610ab357806040015192505050610aec565b508080610abf906112cb565b915050610974565b507fffffffffffffffffffffffffffffffffffffffffffffffffffffffffffffffff90505b919050565b600081604051602001610b04919061134f565b6040516020818303038152906040528051906020012083604051602001610b2b919061134f565b6040516020818303038152906040528051906020012014905092915050565b6040518060600160405280600073ffffffffffffffffffffffffffffffffffffffff16815260200160608152602001600081525090565b828054610b8d9061123c565b90600052602060002090601f016020900481019282610baf5760008555610bf6565b82601f10610bc857805160ff1916838001178555610bf6565b82800160010185558215610bf6579182015b82811115610bf5578251825591602001919060010190610bda565b5b509050610c039190610c07565b5090565b5b80821115610c20576000816000905550600101610c08565b5090565b6000604051905090565b600080fd5b600080fd5b600073ffffffffffffffffffffffffffffffffffffffff82169050919050565b6000610c6382610c38565b9050919050565b610c7381610c58565b8114610c7e57600080fd5b50565b600081359050610c9081610c6a565b92915050565b600060208284031215610cac57610cab610c2e565b5b6000610cba84828501610c81565b91505092915050565b600081519050919050565b600082825260208201905092915050565b6000819050602082019050919050565b610cf881610c58565b82525050565b600081519050919050565b600082825260208201905092915050565b60005b83811015610d38578082015181840152602081019050610d1d565b83811115610d47576000848401525b50505050565b6000601f19601f8301169050919050565b6000610d6982610cfe565b610d738185610d09565b9350610d83818560208601610d1a565b610d8c81610d4d565b840191505092915050565b6000819050919050565b610daa81610d97565b82525050565b6000606083016000830151610dc86000860182610cef565b5060208301518482036020860152610de08282610d5e565b9150506040830151610df56040860182610da1565b508091505092915050565b6000610e0c8383610db0565b905092915050565b6000602082019050919050565b6000610e2c82610cc3565b610e368185610cce565b935083602082028501610e4885610cdf565b8060005b85811015610e845784840389528151610e658582610e00565b9450610e7083610e14565b925060208a01995050600181019050610e4c565b50829750879550505050505092915050565b60006020820190508181036000830152610eb08184610e21565b905092915050565b610ec181610d97565b82525050565b6000602082019050610edc6000830184610eb8565b92915050565b610eeb81610d97565b8114610ef657600080fd5b50565b600081359050610f0881610ee2565b92915050565b600060208284031215610f2457610f23610c2e565b5b6000610f3284828501610ef9565b91505092915050565b6000606083016000830151610f536000860182610cef565b5060208301518482036020860152610f6b8282610d5e565b9150506040830151610f806040860182610da1565b508091505092915050565b60006020820190508181036000830152610fa58184610f3b565b905092915050565b600080fd5b600080fd5b7f4e487b7100000000000000000000000000000000000000000000000000000000600052604160045260246000fd5b610fef82610d4d565b810181811067ffffffffffffffff8211171561100e5761100d610fb7565b5b80604052505050565b6000611021610c24565b905061102d8282610fe6565b919050565b600067ffffffffffffffff82111561104d5761104c610fb7565b5b61105682610d4d565b9050602081019050919050565b82818337600083830152505050565b600061108561108084611032565b611017565b9050828152602081018484840111156110a1576110a0610fb2565b5b6110ac848285611063565b509392505050565b600082601f8301126110c9576110c8610fad565b5b81356110d9848260208601611072565b91505092915050565b6000602082840312156110f8576110f7610c2e565b5b600082013567ffffffffffffffff81111561111657611115610c33565b5b611122848285016110b4565b91505092915050565b6000819050919050565b61113e8161112b565b82525050565b60006020820190506111596000830184611135565b92915050565b6000806040838503121561117657611175610c2e565b5b600083013567ffffffffffffffff81111561119457611193610c33565b5b6111a0858286016110b4565b925050602083013567ffffffffffffffff8111156111c1576111c0610c33565b5b6111cd858286016110b4565b9150509250929050565b60008115159050919050565b6111ec816111d7565b82525050565b600060208201905061120760008301846111e3565b92915050565b7f4e487b7100000000000000000000000000000000000000000000000000000000600052602260045260246000fd5b6000600282049050600182168061125457607f821691505b6020821081036112675761126661120d565b5b50919050565b7f4e487b7100000000000000000000000000000000000000000000000000000000600052603260045260246000fd5b7f4e487b7100000000000000000000000000000000000000000000000000000000600052601160045260246000fd5b60006112d682610d97565b91507fffffffffffffffffffffffffffffffffffffffffffffffffffffffffffffffff82036113085761130761129c565b5b600182019050919050565b600081905092915050565b600061132982610cfe565b6113338185611313565b9350611343818560208601610d1a565b80840191505092915050565b600061135b828461131e565b91508190509291505056fea2646970667358221220cf9b840a99ef1135a2425c74551744596ef58d0f7a95a003fdb7fe21c3e7c9d664736f6c634300080d0033",
  "immutableReferences": {},
  "source": "pragma solidity >=0.4.22 <0.9.0;\n\ncontract Websites {\n    uint256 id;\n\n    constructor() {\n        id = 0;\n    }\n\n    struct Website {\n        address owner;\n        string url;\n        uint256 id;\n    }\n\n    mapping(uint256 => Website) idToWebsite;\n\n    function submitWebsite(string memory url) public {\n        idToWebsite[id] = Website(msg.sender, url, id);\n        id++;\n    }\n\n    function getWebsites() public view returns(Website[] memory) {\n        Website[] memory websites = new Website[](id);\n        for(uint256 i = 0; i < id; i++) {\n            Website memory website = idToWebsite[i];\n            websites[i] = Website(website.owner, website.url, website.id);\n        }\n        return websites;\n    }\n\n    function getWebsiteWithId(uint256 websiteID) public view returns(Website memory) {\n        Website memory website = idToWebsite[websiteID];\n        return website;\n    }\n\n    function getCountOfWebsitesForAddress(address addr) public view returns(uint256) {\n        uint256 count = 0;\n        for (uint256 i = 0; i < id; i++) {\n            Website memory website = idToWebsite[i];\n            if (website.owner == addr) {\n                count++;\n            }\n        }\n        return count;\n    }\n\n    function getWebsitesForAddress(address addr) public view returns(Website[] memory) {\n        uint256 countOfWebsitesForAddress = getCountOfWebsitesForAddress(addr);\n        Website[] memory websites = new Website[](countOfWebsitesForAddress);\n\n        uint256 j = 0;\n        for(uint256 i = 0; i < id; i++) {\n            Website memory website = idToWebsite[i];\n            if (website.owner == addr) {\n                websites[j] = Website(website.owner, website.url, website.id);\n                j++;\n            }\n        }\n\n        return websites;\n    }\n\n    function compareStrings(string memory a, string memory b) public view returns (bool) {\n        return (keccak256(abi.encodePacked((a))) == keccak256(abi.encodePacked((b))));\n}\n\n    function getWebsiteIdFromURL(string memory url) public view returns(int256) {\n        for(uint256 i = 0; i < id; i++) {\n            Website memory website = idToWebsite[i];\n            if (compareStrings(website.url, url)) {\n                return int256(website.id);\n            }\n        }\n        return -1;\n    }\n}",
  "sourcePath": "/Users/zane/Documents/Faks/Magistrski studij/1. letnik/2. semester/Racunalnistvo v megli za pametne storitve/Project/ad-agency/smart_contracts/contracts/Websites.sol",
  "compiler": {
    "name": "solc",
    "version": "0.8.13+commit.abaa5c0e.Emscripten.clang"
  },
  "schemaVersion": "3.4.13",
  "updatedAt": "2023-05-29T13:41:32.229Z",
  "networkType": "ethereum",
  "devdoc": {
    "kind": "dev",
    "methods": {},
    "version": 1
  },
  "userdoc": {
    "kind": "user",
    "methods": {},
    "version": 1
  }
}